0119325960999991980010100004+51783+158033FM-12+001899999V0200501N01201007501CN0200001N9-00401-00901100671ADDAA199000091AG14000AY111999GF108991081051008001999999KA1999N-01601MD1710181+9999MW1031OA199901401REMSYN01170066 91114
0095325960999991980010103004+51783+158033FM-12+001899999V0200501N01201004201CN0040001N9-00501-00701100411ADDAG12003AY181999GF108991081091004501999999MD1710261+9999MW1861OA199901401REMSYN01191114 92352
0095325960999991980010106004+51783+158033FM-12+001899999V0200501N012019999999N0040001N9-00401-00601100411ADDAG12003AY181999GF108991999081004501999999MD1310011+9999MW1861OA199901401REMSYN01191114 92352
0125325960999991980010109004+51783+158033FM-12+001899999V0200501N01201004201CN0040001N9-00401-00501100301ADDAA199002091AG10003AY181999GF108991081091004501999999KA1999M-00401MD1810111+9999MW1861OA199901401REMSYN01770254 91114 92352
0144325960999991980010112004+51783+158033FM-12+001899999V0200501N01201004201CN0040001N9-00301-00301100321ADDAA199002091AG10003AY181999GF108991081091004501999999KA1999M+99999MD1310021+9999MW1861OA199901401REMSYN01770254 91114 92352EQDQ01 -00402ATMX  
0084325960999991980010115004+51783+158033FM-12+001899999V0200501N01201004201CN0040001N9-00301-00501100411ADDAG12003AY181999GF108991081091004501999999MD1210091+9999MW1861REMSYN0119111  92352
0089325960999991980010118004+51783+158033FM-12+001899999V0200501N01201004201CN0040001N9-00301-00501100561ADDAG12003AY181999GF108991081091004501999999MD1210151+9999MW1861OA199901401REMSYN00591114
0149325960999991980010121004+51783+158033FM-12+001899999V0200501N01001007501CN0040001N9-00201-00401100861ADDAA199003091AG10003AY181999GF108991081091008001999999IA1209IA2999-00509KA1999N-00701MD1210371+9999MW1861OA199901401REMSYN02370357 91114 92352 25573
0125325960999991980010200004+51783+158033FM-12+001899999V0200501N01001007501CN0040001N9-00301-00401101101ADDAA199002091AG10003AY181999GF108991081091008001999999KA1999N-00701MD1210241+9999MW1861OA199901401REMSYN01770257 91114 92352
0095325960999991980010203004+51783+158033FM-12+001899999V0200501N00501007501CN0200001N9-00201-00801101221ADDAG12001AY181999GF106991061091008001001001MD1110121+9999MW1851OA199901401REMSYN01191114 92350
0108325960999991980010206004+51783+158033FM-12+001899999V0200501N00101220001CN0200001N9-00401-01001999999ADDAG12002AY181999GF106991021041008001001011MD1210231+9999MW1021OA199901401REMSYN00591114EQDQ01+100463APOSLP
0102325960999991980010209004+51783+158033FM-12+001899999V0203601N00101220001CN0200001N9-01101-01801101651ADDAA199001091AG13000AY111999GF103991001001999999001021KA1999M-00201MD1210191+9999MW1021REMSYN00570152
0116325960999991980010212004+51783+158033FM-12+001899999V0203601N00101220001CN0200001N9-01101-01901101681ADDAA199000591AG13000AY111999GF100991001001999999001001KA1999M-00201MD1110031+9999MW1021WG199130699999REMSYN00579552
0064325960999991980010215004+51783+158033FM-12+001899999V0203601N00201220001CN0200001N9-01301-02101101731ADDAG11000AY101999GF100991001001999999001001MD1210041+9999MW1021
0064325960999991980010218004+51783+158033FM-12+001899999V0203101N00201220001CN0200001N9-01101-02001101811ADDAG11000AY101999GF100991001001999999001001MD1210081+9999MW1021
0126325960999991980010221004+51783+158033FM-12+001899999V0209991C00001220001CN0200001N9-01101-02001101831ADDAA199000091AG14000AY101999GF100991001001999999001001IA1209IA2999-01509KA1999N-01301MD1210061+9999MW1021REMSYN01170063 26573
0064325960999991980010303004+51783+158033FM-12+001899999V0209991C00001220001CN0200001N9-00201-01001101951ADDAG12000AY101999GF100991001001999999001001MD1810061+9999MW1021
0064325960999991980010306004+51783+158033FM-12+001899999V0209991C00001220001CN0200001N9-00501-01301101921ADDAG12000AY101999GF100991001001999999001001MD1310071+9999MW1021
0102325960999991980010309004+51783+158033FM-12+001899999V0203201N00201220001CN0200001N9-01101-01901101971ADDAA199000091AG14000AY101999GF100991001001999999001001KA1999M-00201MD1210041+9999MW1021REMSYN00570052
0064325960999991980010315004+51783+158033FM-12+001899999V0209991C00001220001CN0200001N9-00901-01701101911ADDAG12000AY101999GF100991001001999999001001MD1710041+9999MW1021
0064325960999991980010318004+51783+158033FM-12+001899999V0209991C00001220001CN0200001N9-01301-02201101811ADDAG12000AY101999GF100991001001999999001001MD1810111+9999MW1021
0102325960999991980010400004+51783+158033FM-12+001899999V0209991C00001220001CN0500001N9-00601-01201101761ADDAA199000091AG14000AY101999GF100991001001999999001001KA1999N-01301MD1810041+9999MW1021REMSYN00570063
0064325960999991980010403004+51783+158033FM-12+001899999V0209991C00001220001CN0500001N9-00201-00501101581ADDAG11000AY101999GF100991001001999999001001MD1810181+9999MW1021
0102325960999991980010412004+51783+158033FM-12+001899999V0209991C00001007501CN0200001N9-00701-00901101431ADDAA199000091AG10000AY111999GF107991071041008001001001KA1999M-00201MD1710111+9999MW1021REMSYN00570052
0064325960999991980010415004+51783+158033FM-12+001899999V0200501N00101007501CN0200001N9-00701-00901101371ADDAG11000AY121999GF108991081041008001999999MD1710061+9999MW1021
0064325960999991980010418004+51783+158033FM-12+001899999V0201401N00201007501CN0200001N9-00201-00501101041ADDAG11000AY121999GF108991081041008001999999MD1810331+9999MW1021
0126325960999991980010421004+51783+158033FM-12+001899999V0201401N00601007501CN0200001N9-00201-00401100851ADDAA199000091AG14000AY121999GF108991081041008001999999IA1209IA2999-00909KA1999N-00701MD1710181+9999MW1021REMSYN01170057 25973
0119325960999991980010500004+51783+158033FM-12+001899999V0201401N01201007501CN0200001N9+00001-00301100631ADDAA199000091AG10000AY121999GF108991081041008001999999KA1999N-00701MD1710221+9999MW1021OA199901401REMSYN01170057 91114
0095325960999991980010503004+51783+158033FM-12+001899999V0201401N01201004201CN0200001N9-00101-00201100221ADDAG12001AY181999GF199999081091004501999999MD1710411+9999MW1851OA199901401REMSYN01191114 92352
0095325960999991980010506004+51783+158033FM-12+001899999V0201401N01401004201CN0040001N9+00001-00101099791ADDAG12003AY181999GF108991081091004501999999MD1710431+9999MW1861OA199901601REMSYN01191116 92353
0125325960999991980010509004+51783+158033FM-12+001899999V0201401N01501004201CN0010001N9+00001+00001099461ADDAA199013091AG10003AY181999GF108991081091004501999999KA1999M+00001MD1710331+9999MW1861OA199902001REMSYN01771300 91120 92352
0095325960999991980010515004+51783+158033FM-12+001899999V0201401N01001004201CN0020001N9+00001+00001098941ADDAG12001AY181999GF108991081091004501999999MD1710261+9999MW1851OA199901601REMSYN01191116 92352
0095325960999991980010518004+51783+158033FM-12+001899999V0201401N01001004201CN0020001N9+00001+00001098551ADDAG12001AY181999GF108991081091004501999999MD1710411+9999MW1851OA199901601REMSYN01191116 92352
0149325960999991980010521004+51783+158033FM-12+001899999V0202701N01001007501CN0020001N9-00201-00201098551ADDAA199017091AG10001AY181999GF108991081091008001999999IA1209IA2999-00509KA1999N-00201MD1610021+9999MW1851OA199901401REMSYN02371752 91114 92352 25575
0144325960999991980010600004+51783+158033FM-12+001899999V0201401N00201004201CN0200001N9-00401-00601098731ADDAA199015091AG10002AY181999GF108991081091004501999999KA1999N+99999MD1310181+9999MW1021OA199901401REMSYN01771552 92350 91114EQDQ01 -00202ATMN  
0064325960999991980010603004+51783+158033FM-12+001899999V0203201N00301007501CN0200001N9-00701-01001099071ADDAG12000AY121999GF106991051051008001001011MD1210341+9999MW1021
0064325960999991980010606004+51783+158033FM-12+001899999V0209991C00001220001CN0200001N9-00901-01901099561ADDAG12000AY111999GF100991001001999999001001MD1210481+9999MW1021
0102325960999991980010609004+51783+158033FM-12+001899999V0209991C00001007501CN0200001N9-00901-01201099941ADDAA199000591AG10000AY111999GF106991061041008001001001KA1999M-00201MD1210381+9999MW1031REMSYN00579552
0102325960999991980010612004+51783+158033FM-12+001899999V0202701N00101220001CN0200001N9-00901-01101100421ADDAA199000091AG14000AY111999GF101991011041008001001001KA1999M-00201MD1210481+9999MW1021REMSYN00570052
0064325960999991980010615004+51783+158033FM-12+001899999V0209991C00001220001CN0200001N9-01001-01501100851ADDAG12000AY101999GF100991001001999999001001MD1210431+9999MW1021
0064325960999991980010618004+51783+158033FM-12+001899999V0209991C00001220001CN0200001N9-01501-02201101321ADDAG12000AY101999GF100991001001999999001001MD1210461+9999MW1021
0126325960999991980010621004+51783+158033FM-12+001899999V0209991C00001220001CN0200001N9-01101-01601101681ADDAA199000091AG14000AY101999GF100991001001999999001001IA1209IA2999-01709KA1999N-01501MD1210371+9999MW1021REMSYN01170065 26775
0102325960999991980010700004+51783+158033FM-12+001899999V0209991C00001012001CN0500001N9-01001-01501101911ADDAA199000091AG10000AY111999GF106991061051012501041001KA1999N-01501MD1210231+9999MW1031REMSYN00570065
0064325960999991980010703004+51783+158033FM-12+001899999V0200901N00301007501CN0200001N9-00601-01101101861ADDAG11000AY121999GF108991081051008001999999MD1810051+9999MW1031
0064325960999991980010706004+51783+158033FM-12+001899999V0201401N00301007501CN0200001N9-00201-00401101961ADDAG12000AY121999GF108991081051008001999999MD1810101+9999MW1021
0119325960999991980010709004+51783+158033FM-12+001899999V0201401N01201004201CN0200001N9-00101-00301102091ADDAA199000091AG14000AY121999GF108991081051004501999999KA1999M-00101MD1210131+9999MW1021OA199901601REMSYN01170051 91116
0089325960999991980010715004+51783+158033FM-12+001899999V0201401N01201004201CN0200001N9-00301-00501101971ADDAG12000AY121999GF108991081051004501999999MD1810161+9999MW1021OA199901401REMSYN00591114
0089325960999991980010718004+51783+158033FM-12+001899999V0201401N01201004201CN0200001N9-00201-00501101731ADDAG11000AY121999GF108991081051004501999999MD1710231+9999MW1021OA199901601REMSYN00591116
0143325960999991980010721004+51783+158033FM-12+001899999V0201401N01201004201CN0200001N9-00201-00501101411ADDAA199000091AG10000AY121999GF108991081051004501999999IA1209IA2999-00609KA1999N-00201MD1710321+9999MW1021OA199901601REMSYN01770052 91116 25675
0125325960999991980010800004+51783+158033FM-12+001899999V0201401N01401004201CN0010001N9+00001+00001101011ADDAA199999929AG10003AY181999GF108991081091004501999999KA1999N-00201MD1710291+9999MW1861OA199901801REMSYN01779752 91118 92351
0095325960999991980010803004+51783+158033FM-12+001899999V0201401N01201004201CN0010001N9+00001+00001100771ADDAG12003AY181999GF108991081091004501999999MD1710241+9999MW1861OA199901601REMSYN01191116 92352
0133325960999991980010809004+51783+158033FM-12+001899999V0200901N01001007501CN0200001N9+00101-00201100451ADDAA199002091AG10002AY181999GF108991081041008001999999KA1999M+00101MD1710171+9999MW1021OA199901401WG199010299999REMSYN01170201 91114
0119325960999991980010812004+51783+158033FM-12+001899999V0200901N01201007501CN0200001N9+00001-00301100401ADDAA199002091AG10002AY181999GF108991081051008001999999KA1999M+00101MD1610051+9999MW1021OA199901401REMSYN01170201 91114
0089325960999991980010815004+51783+158033FM-12+001899999V0200901N01201007501CN0200001N9+00001-00201100161ADDAG12002AY181999GF108991081051008001999999MD1810241+9999MW1021OA199901601REMSYN00591116
0070325960999991980010818004+51783+158033FM-12+001899999V0209999999999007501CN0300001N9+00001-00101100021ADDAG12001GF108991081051008001999999MD1710141+9999MW1221REMSYN00591114
0143325960999991980010821004+51783+158033FM-12+001899999V0201401N01201007501CN0200001N9+00001-00101099761ADDAA199000091AG10000AY121999GF108991081051008001999999IA1209IA2999+00009KA1999N+00001MD1710261+9999MW1021OA199901601REMSYN01770050 25076 91116
0125325960999991980010900004+51783+158033FM-12+001899999V0200901N01201004201CN0040001N9+00001+00001099671ADDAA199002091AG10001AY181999GF108991081091004501999999KA1999N+00001MD1610091+9999MW1851OA199901401REMSYN01770250 91114 92342
0095325960999991980010903004+51783+158033FM-12+001899999V0200501N01001004201CN0020001N9+00001+00001099541ADDAG12001AY181999GF108991081091004501999999MD1710131+9999MW1851OA199901601REMSYN01191116 92352
0095325960999991980010906004+51783+158033FM-12+001899999V0200501N01001004201CN0020001N9+00001+00001099521ADDAG12003AY181999GF108991081091004501999999MD1610021+9999MW1861OA199901401REMSYN01191114 92352
0125325960999991980010909004+51783+158033FM-12+001899999V0200501N00801004201CN0020001N9+00001+00001099521ADDAA199012091AG10003AY181999GF108991081091004501999999KA1999M+00101MD1410001+9999MW1861OA199901201REMSYN01771201 91112 92352
0114325960999991980010912004+51783+158033FM-12+001899999V0200501N01201004201CN0020001N9+00001+00001099501ADDAA199015091AG10003AY181999GF108991081091004501999999KA1999M+00101MD1810021+9999MW1861REMSYN01771501 91112 92352
0095325960999991980010915004+51783+158033FM-12+001899999V0200501N01201004201CN0020001N9+00001+00001099481ADDAG12003AY181999GF108991081091004501999999MD1710021+9999MW1861OA199901401REMSYN01191114 92352
0095325960999991980010918004+51783+158033FM-12+001899999V0200501N01201007501CN0020001N9+00001-00101099751ADDAG12003AY181999GF108991081091008001999999MD1710031+9999MW1861OA199901401REMSYN01191114 92352
0168325960999991980010921004+51783+158033FM-12+001899999V0200501N012019999999N0010001N9+00001+00001099521ADDAA199017091AG10003AY181999GF107991999091008001999999IA1209IA2999-00109KA1999N+00001MD1310041+9999MW1861OA199901401REMSYN02371700 91114 92352 25176EQDQ01+000082SCOTLC
0095325960999991980011003004+51783+158033FM-12+001899999V0200501N01001004201CN0010001N9+00201+00001099691ADDAG12003AY181999GF108991081091004501999999MD1110021+9999MW1861OA199901401REMSYN01191114 92352
0109325960999991980011006004+51783+158033FM-12+001899999V0200501N01001004201CN0010001N9+00001+00001099791ADDAG12003AY181999GF108991081091004501999999MD1310101+9999MW1861OA199901401WG199370999999REMSYN01191114 92352
0125325960999991980011009004+51783+158033FM-12+001899999V0200501N01201004201CN0010001N9+00101-00101100001ADDAA199019091AG10003AY181999GF108991081091004501999999KA1999M+00201MD1310211+9999MW1861OA199901401REMSYN01771902 91114 92352
0125325960999991980011012004+51783+158033FM-12+001899999V0200501N01001004201CN0010001N9+00001-00101100041ADDAA199009091AG10003AY181999GF108991081091004501999999KA1999M+00201MD1110041+9999MW1861OA199901401REMSYN01770902 91114 92352
0095325960999991980011015004+51783+158033FM-12+001899999V0200501N01201004201CN0010001N9+00001-00101100011ADDAG12003AY181999GF108991081091004501999999MD1810031+9999MW1861OA199901401REMSYN01191114 92352
0095325960999991980011018004+51783+158033FM-12+001899999V0200501N01201004201CN0010001N9+00001+00001100271ADDAG12003AY181999GF108991081091004501999999MD1310261+9999MW1861OA199901401REMSYN01191114 92352
0149325960999991980011021004+51783+158033FM-12+001899999V0200501N01001004201CN0010001N9+00001-00101100351ADDAA199018091AG10003AY181999GF108991081091004501999999IA1209IA2999-00109KA1999N+00001MD1110081+9999MW1861OA199901401REMSYN02371800 91114 92352 25176
0125325960999991980011100004+51783+158033FM-12+001899999V0200501N01001004201CN0010001N9+00101+00001999999ADDAA199018091AG10003AY181999GF108991081091004501999999KA1999N+00001MD1210101+9999MW1861OA199901401REMSYN01771800 91114 92352
0095325960999991980011103004+51783+158033FM-12+001899999V0200701N01201004201CN0010001N9+00101+00101100421ADDAG12003AY181999GF108991081091004501999999MD1810031+9999MW1861OA199901401REMSYN01191114 92352
0125325960999991980011109004+51783+158033FM-12+001899999V0200501N01401004201CN0010001N9+00001-00101100441ADDAA199015091AG10003AY181999GF108991081091004501999999KA1999M+00101MD1810021+9999MW1861OA199901601REMSYN01771501 91116 92352
0125325960999991980011112004+51783+158033FM-12+001899999V0200501N01001004201CN0010001N9+00001-00101100311ADDAA199013091AG10003AY181999GF108991081091004501999999KA1999M+00101MD1810131+9999MW1861OA199901401REMSYN01771301 91114 92352
0095325960999991980011115004+51783+158033FM-12+001899999V0200501N01001004201CN0010001N9+00001-00201100251ADDAG12003AY181999GF108991081091004501999999MD1610061+9999MW1861OA199901401REMSYN01191114 92352
0109325960999991980011118004+51783+158033FM-12+001899999V0200501N01001004201CN0010001N9-00201-00401100201ADDAG12003AY181999GF108991081091004501999999MD1710051+9999MW1861OA199901401WG199370999999REMSYN01191114 92352
0149325960999991980011121004+51783+158033FM-12+001899999V0200901N00501007501CN0200001N9-00201-00301100441ADDAA199018091AG10002AY181999GF108991081041008001999999IA1209IA2999-00209KA1999N-00201MD1310241+9999MW1261OA199901401REMSYN02371852 91114 92350 25276
0119325960999991980011200004+51783+158033FM-12+001899999V0201401N00401007501CN0200001N9-00101-00401100611ADDAA199015091AG10002AY181999GF108991081051008001999999KA1999N-00201MD1210171+9999MW1021OA199901401REMSYN01171552 91114
0064325960999991980011203004+51783+158033FM-12+001899999V0201401N00301007501CN0200001N9-00101-00401100721ADDAG12000AY121999GF108991081051008001999999MD1210111+9999MW1021
0064325960999991980011206004+51783+158033FM-12+001899999V0209991C00001030001CN0500001N9-00101-00101100761ADDAG12000AY121999GF105991021051008001041001MD1110041+9999MW1011
0102325960999991980011209004+51783+158033FM-12+001899999V0209991C00001220001CN0200001N9-00401-00801100841ADDAA199000091AG14000AY111999GF102991021001999999031001KA1999M+00001MD1210071+9999MW1021REMSYN00570050
0102325960999991980011212004+51783+158033FM-12+001899999V0200901N00301007501CN0200001N9+00001-00301100771ADDAA199000091AG14000AY111999GF108991081051008001999999KA1999M+00001MD1810061+9999MW1031REMSYN00570050
0064325960999991980011215004+51783+158033FM-12+001899999V0209991C00001007501CN0200001N9-00101-00301100691ADDAG12000AY121999GF108991081051008001999999MD1710081+9999MW1021
0064325960999991980011218004+51783+158033FM-12+001899999V0200901N00301007501CN0200001N9+00001-00201100841ADDAG12000AY121999GF108991081051008001999999MD1310151+9999MW1021
0126325960999991980011221004+51783+158033FM-12+001899999V0200901N00201004201CN0020001N9+00001+00001100851ADDAA199002091AG10001AY181999GF108991081091004501999999IA1209IA2999-00709KA1999N-00401MD1110011+9999MW1851REMSYN01170254 25776
0102325960999991980011300004+51783+158033FM-12+001899999V0200501N00201004201CN0040001N9+00001-00101101011ADDAA199002091AG10001AY181999GF108991081091004501999999KA1999N-00401MD1310161+9999MW1851REMSYN00570254
0064325960999991980011306004+51783+158033FM-12+001899999V0200501N00201004201CN0040001N9+00001-00101101051ADDAG12001AY181999GF108991081091004501999999MD1310191+9999MW1851
0102325960999991980011309004+51783+158033FM-12+001899999V0200501N00101004201CN0040001N9+00001-00301101141ADDAA199002091AG10001AY181999GF108991081091004501999999KA1999M+00001MD1210091+9999MW1851REMSYN00570200
0064325960999991980011315004+51783+158033FM-12+001899999V0209991C00001007501CN0200001N9-00101-00401101261ADDAG11000AY121999GF108991081041008001999999MD1210071+9999MW1021
0064325960999991980011318004+51783+158033FM-12+001899999V0209991C00001007501CN0200001N9+00001-00401101291ADDAG11000AY121999GF108991081051008001999999MD1110031+9999MW1021
0126325960999991980011321004+51783+158033FM-12+001899999V0209991C00001007501CN0200001N9-00101-00401101321ADDAA199000491AG10000AY121999GF108991081051008001999999IA1199IA2999-00209KA1999N-00101MD1210031+9999MW1021REMSYN01179451 25267
0121325960999991980011400004+51783+158033FM-12+001899999V0209991C00001007501CN0500001N9-00201-00501101371ADDAA199000091AG14000AY121999GF107991071051008001001001KA1999N+99999MD1210051+9999MW1021REMSYN00570051EQDQ01 -00102ATMN  
0064325960999991980011403004+51783+158033FM-12+001899999V0203601N00101030001CN0500001N9+00001-00401101221ADDAG12000AY121999GF105991021051008001041001MD1810151+9999MW1021
0064325960999991980011406004+51783+158033FM-12+001899999V0203201N00401030001CN0500001N9-00101-00701101131ADDAG12000AY121999GF108991021051008001071999MD1710091+9999MW1021
0102325960999991980011409004+51783+158033FM-12+001899999V0203601N00601007501CN0200001N9-00101-00401100971ADDAA199000091AG10000AY121999GF108991081051008001999999KA1999M+00001MD1710161+9999MW1021REMSYN00570000
0108325960999991980011412004+51783+158033FM-12+001899999V0200201N00801007501CN0200001N9+99999-00401100851ADDAA199000091AG14000AY121999GF108991081051008001999999MD1710121+9999MW1021REMSYN00570000EQDQ01+030423ATOT  
0089325960999991980011415004+51783+158033FM-12+001899999V0200901N01201007501CN0200001N9-00101-00301100581ADDAG12000AY131999GF108991081051008001999999MD1810271+9999MW1361OA199901601REMSYN00591116
0103325960999991980011418004+51783+158033FM-12+001899999V0200901N01201007501CN0200001N9-00101-00401100471ADDAG12000AY131999GF108991081051008001999999MD1610111+9999MW1361OA199901601WG199060499999REMSYN00591116
0143325960999991980011421004+51783+158033FM-12+001899999V0200501N01201007501CN0200001N9+00001-00301100181ADDAA199000091AG14000AY131999GF108991081051008001999999IA1209IA2999-00209KA1999N-00101MD1810291+9999MW1361OA199901601REMSYN01770051 91116 25276
0125325960999991980011500004+51783+158033FM-12+001899999V0200701N01401004201CN0020001N9+00001-00301099991ADDAA199000591AG10003AY131999GF108991081091004501999999KA1999N-00101MD1710191+9999MW1861OA199901601REMSYN01779551 91116 92352
0095325960999991980011503004+51783+158033FM-12+001899999V0200501N01401004201CN0010001N9-00101-00201099711ADDAG12003AY181999GF108991081091004501999999MD1710281+9999MW1861OA199901801REMSYN01191118 92352
0095325960999991980011506004+51783+158033FM-12+001899999V0200501N01401004201CN0010001N9-00101-00201099711ADDAG12003AY181999GF108991081091004501999999MD1410001+9999MW1861OA199901801REMSYN01191118 92352
0125325960999991980011509004+51783+158033FM-12+001899999V0200501N01401004201CN0010001N9-00101-00201099701ADDAA199013091AG10003AY181999GF108991081091004501999999KA1999M+00001MD1810011+9999MW1861OA199901801REMSYN01771300 91118 92352
0095325960999991980011515004+51783+158033FM-12+001899999V0200501N01201004201CN0010001N9-00101-00201099601ADDAG12003AY181999GF108991081091004501999999MD1810081+9999MW1861OA199901401REMSYN01191114 92352
0114325960999991980011518004+51783+158033FM-12+001899999V0200501N01201004201CN0010001N9-00101-00201099541ADDAG12003AY181999GF108991081091004501999999MD1710061+9999MW1861OA199901601REMSYN01191116 92352EQDQ01+000862APC3  
0149325960999991980011521004+51783+158033FM-12+001899999V0200501N01201004201CN0010001N9-00101-00201099651ADDAA199019091AG10003AY181999GF108991081091004501999999IA1209IA2999-00209KA1999N-00101MD1310111+9999MW1861OA199901601REMSYN02371951 91116 92352 25276
0125325960999991980011600004+51783+158033FM-12+001899999V0200501N01201007501CN0200001N9+00001-00201099591ADDAA199019091AG10002AY181999GF108991081041008001999999KA1999N-00101MD1810061+9999MW1361OA199901601REMSYN01771951 91116 92350
0095325960999991980011603004+51783+158033FM-12+001899999V0200501N01201004201CN0010001N9+00001-00201099451ADDAG12003AY131999GF108991081091004501999999MD1810141+9999MW1861OA199901601REMSYN01191116 92352
0095325960999991980011606004+51783+158033FM-12+001899999V0200501N01201004201CN0020001N9+00001-00101099471ADDAG12003AY131999GF108991081091004501999999MD1310021+9999MW1861OA199901601REMSYN01191116 92352
0125325960999991980011609004+51783+158033FM-12+001899999V0200501N01201004201CN0020001N9+00001+00001099541ADDAA199010091AG10001AY181999GF108991081091004501999999KA1999M+00001MD1310071+9999MW1851OA199901601REMSYN01771000 91116 92352
0125325960999991980011612004+51783+158033FM-12+001899999V0200501N01201007501CN0020001N9+00001-00201099651ADDAA199010091AG10001AY181999GF108991081091008001999999KA1999M+00001MD1210111+9999MW1851OA199901601REMSYN01771000 91116 92352
0095325960999991980011615004+51783+158033FM-12+001899999V0200501N01201007501CN0020001N9+00001-00201099691ADDAG12001AY181999GF108991081091008001999999MD1110041+9999MW1851OA199901601REMSYN01191116 92352
0095325960999991980011618004+51783+158033FM-12+001899999V0200501N01401007501CN0020001N9-00101-00201099901ADDAG12001AY181999GF108991081091008001999999MD1310211+9999MW1851OA199901601REMSYN01191116 92352
0149325960999991980011621004+51783+158033FM-12+001899999V0200501N01201007501CN0020001N9-00201-00401099961ADDAA199006091AG10001AY181999GF108991081091008001999999IA1209IA2999-00209KA1999N-00201MD1110061+9999MW1851OA199901601REMSYN02370652 91116 92352 25276
0152325960999991980011700004+51783+158033FM-12+001899999V0200701N01801007501CN0200001N9-00301-00401100011ADDAA199006091AG10002AY181999GF108991081041008001999999KA1999N+99999MD1210051+9999MW1361OA199902001WG199010799999REMSYN01170652 91120EQDQ01 -00202ATMN  
0103325960999991980011703004+51783+158033FM-12+001899999V0200701N01801007501CN0200001N9-00301-00501099911ADDAG11000AY131999GF108991081051008001999999MD1810181+9999MW1361OA199902001WG199090099999REMSYN00591120
0089325960999991980011706004+51783+158033FM-12+001899999V0200501N02001007501CN0200001N9-00301-00601099911ADDAG12000AY131999GF108991081051008001999999MD1410001+9999MW1361OA199902201REMSYN00591122
0119325960999991980011709004+51783+158033FM-12+001899999V0200501N01801007501CN0200001N9-00401-00601099931ADDAA199001091AG10000AY131999GF108991081051008001999999KA1999M-00201MD1310021+9999MW1361OA199902201REMSYN01170152 91122
0119325960999991980011712004+51783+158033FM-12+001899999V0200501N01801007501CN0200001N9-00401-00601100191ADDAA199000491AG10000AY131999GF108991081051008001999999KA1999M-00201MD1810261+9999MW1361OA199902201REMSYN01179452 91122
0089325960999991980011718004+51783+158033FM-12+001899999V0200501N01601007501CN0200001N9-00101-00401100371ADDAG12000AY131999GF108991081051008001999999MD1110061+9999MW1361OA199902001REMSYN00591120
0143325960999991980011721004+51783+158033FM-12+001899999V0200501N01401007501CN0200001N9-00201-00501100531ADDAA199000091AG14000AY131999GF108991081051008001999999IA1209IA2999-00509KA1999N-00401MD1510311+9999MW1361OA199901801REMSYN01770054 91118 25576
0119325960999991980011800004+51783+158033FM-12+001899999V0200501N01601007501CN0200001N9-00401-00601100641ADDAA199000091AG14000AY131999GF108991081051008001999999KA1999N-00401MD1210111+9999MW1361OA199901801REMSYN01170054 91118
0103325960999991980011803004+51783+158033FM-12+001899999V0200501N01201007501CN0200001N9-00401-00701100631ADDAG12000AY131999GF106991061051008001001001MD1810011+9999MW1361OA199901601WG199370799999REMSYN00591116
0119325960999991980011812004+51783+158033FM-12+001899999V0200701N01001007501CN0200001N9-00701+99999101071ADDAA199000091AG10000AY131999GF108991081051008001999999KA1999M-00201MD1810011+9999MW1361OA199901401REMSYN01170052 91114
0102325960999991980011900004+51783+158033FM-12+001899999V0209991C00001220001CN0500001N9-00801-01201100541ADDAA199000091AG10000AY131999GF100991001001999999001001KA1999N-01201MD1810111+9999MW1021REMSYN00570062
0064325960999991980011903004+51783+158033FM-12+001899999V0200901N00101220001CN0500001N9-00801-01401100361ADDAG12000AY101999GF100991001001999999001001MD1710181+9999MW1021
0064325960999991980011906004+51783+158033FM-12+001899999V0203201N00301220001CN0500001N9-00701-01601100221ADDAG12000AY101999GF100991001001999999001001MD1710141+9999MW1021
0102325960999991980011909004+51783+158033FM-12+001899999V0209991C00001220001CN0500001N9-00801-01601100131ADDAA199000091AG14000AY101999GF100991001001999999001001KA1999M-00701MD1710091+9999MW1021REMSYN00570057
0102325960999991980011912004+51783+158033FM-12+001899999V0209991C00001220001CN0200001N9-00901-01601100051ADDAA199000091AG10000AY101999GF100991001001999999001001KA1999M-00701MD1710081+9999MW1021REMSYN00570057
0064325960999991980011915004+51783+158033FM-12+001899999V0203201N00101220001CN0200001N9-00801-01701099941ADDAG11000AY101999GF100991001001999999001001MD1710111+9999MW1021
0064325960999991980011918004+51783+158033FM-12+001899999V0209991C00001220001CN0200001N9-00801-01501099851ADDAG11000AY101999GF100991001001999999001001MD1710091+9999MW1021
0126325960999991980011921004+51783+158033FM-12+001899999V0209991C00001220001CN0200001N9-01001-01701099881ADDAA199000091AG14000AY101999GF100991001001999999001001IA1209IA2999-01709KA1999N-01001MD1310031+9999MW1021REMSYN01170060 26776
0102325960999991980012000004+51783+158033FM-12+001899999V0203201N00101220001CN0500001N9-00801-01501099931ADDAA199000091AG10000AY101999GF100991001001999999001001KA1999N-01001MD1210051+9999MW1021REMSYN00570060
0064325960999991980012003004+51783+158033FM-12+001899999V0209991C00001220001CN0500001N9-00401-01401099901ADDAG11000AY101999GF100991001001999999001001MD1810021+9999MW1021
0064325960999991980012006004+51783+158033FM-12+001899999V0209991C00001220001CN0500001N9-00801-01601099941ADDAG11000AY101999GF100991001001999999001001MD1310031+9999MW1021
0102325960999991980012009004+51783+158033FM-12+001899999V0200201N00401220001CN0200001N9-00701-01201099961ADDAA199000091AG14000AY101999GF100991001001999999001001KA1999M-00401MD1210021+9999MW1021REMSYN00570054
0102325960999991980012012004+51783+158033FM-12+001899999V0200501N00201220001CN0200001N9-00801-01401100051ADDAA199000091AG14000AY101999GF100991001001999999001001KA1999M-00401MD1310091+9999MW1021REMSYN00570054
0064325960999991980012015004+51783+158033FM-12+001899999V0209991C00001220001CN0200001N9-00901-01501100131ADDAG12000AY101999GF100991001001999999001001MD1210081+9999MW1021
0064325960999991980012018004+51783+158033FM-12+001899999V0209991C00001220001CN0200001N9-01301-02201100201ADDAG11000AY101999GF100991001001999999001001MD1210071+9999MW1021
0126325960999991980012021004+51783+158033FM-12+001899999V0203201N00101220001CN0200001N9-01001-01601100201ADDAA199000091AG10000AY101999GF103991021051008001081001IA1209IA2999-02009KA1999N-01301MD1410001+9999MW1031REMSYN01170063 27076
0102325960999991980012100004+51783+158033FM-12+001899999V0203601N00201220001CN0500001N9-00901-01501100241ADDAA199000091AG10000AY101999GF100991001001999999001001KA1999N-01301MD1310041+9999MW1021REMSYN00570063
0064325960999991980012103004+51783+158033FM-12+001899999V0209991C00001030001CN0500001N9-00701-01401100131ADDAG11000AY111999GF107991071001999999041001MD1810111+9999MW1031
0064325960999991980012106004+51783+158033FM-12+001899999V0200501N00501030001CN0500001N9-00601-01301099951ADDAG11000AY111999GF107991071001999999051001MD1710181+9999MW1021
0116325960999991980012109004+51783+158033FM-12+001899999V0200501N00501007501CN0200001N9-00601-00901099781ADDAA199000091AG10000AY121999GF108991081051008001999999KA1999M-00601MD1710171+9999MW1021WG199370999999REMSYN00570056
0102325960999991980012112004+51783+158033FM-12+001899999V0200501N00501004201CN0200001N9-00601-00901099481ADDAA199000091AG10000AY121999GF108991081051004501999999KA1999M-00601MD1710291+9999MW1021REMSYN00570056
0095325960999991980012115004+51783+158033FM-12+001899999V0200501N01201004201CN0020001N9-00601-00801099231ADDAG12001AY181999GF108991081091004501999999MD1710251+9999MW1851OA199901401REMSYN01191114 92352
0095325960999991980012118004+51783+158033FM-12+001899999V0200501N01201004201CN0020001N9-00601-00801098791ADDAG12001AY181999GF108991081091004501999999MD1710441+9999MW1851OA199901601REMSYN01191116 92352
0149325960999991980012121004+51783+158033FM-12+001899999V0200201N01201007501CN0020001N9-00501-00601098461ADDAA199003091AG10001AY181999GF108991081091008001999999IA1209IA2999-00809KA1999N-00601MD1710331+9999MW1851OA199901601REMSYN02370356 91116 92353 25876
0119325960999991980012200004+51783+158033FM-12+001899999V0200501N01401007501CN0200001N9-00201-00601098121ADDAA199004091AG10002AY181999GF108991081041008001999999KA1999N-00601MD1710341+9999MW1361OA199901801REMSYN01170456 91118
0095325960999991980012203004+51783+158033FM-12+001899999V0200501N01601007501CN0010001N9-00301-00301097731ADDAG12003AY131999GF108991081091008001999999MD1710391+9999MW1861OA199901801REMSYN01191118 92352
0095325960999991980012206004+51783+158033FM-12+001899999V0200501N01401007501CN0010001N9-00201-00401097561ADDAG12003AY131999GF108991081091008001999999MD1610171+9999MW1861OA199901801REMSYN01191118 92352
0125325960999991980012209004+51783+158033FM-12+001899999V0200501N01401007501CN0010001N9-00301-00601097341ADDAA199013091AG10003AY181999GF108991081091008001999999KA1999M-00201MD1710231+9999MW1861OA199901801REMSYN01771352 91118 92352
0102325960999991980012212004+51783+158033FM-12+001899999V0200501N00801007501CN0200001N9-00401-00801097331ADDAA199013091AG10002AY181999GF108991081041008001999999KA1999M-00201MD1610011+9999MW1361REMSYN00571352
0064325960999991980012215004+51783+158033FM-12+001899999V0200501N00201007501CN0200001N9-00301-00901097341ADDAG12000AY131999GF108991081051008001999999MD1310011+9999MW1361
0064325960999991980012218004+51783+158033FM-12+001899999V0209991C00001007501CN0200001N9-00401-00801097381ADDAG12000AY131999GF108991081051008001999999MD1310041+9999MW1021
0126325960999991980012221004+51783+158033FM-12+001899999V0203201N00201007501CN0200001N9-00401-00801097511ADDAA199001091AG10000AY121999GF108991081051008001999999IA1209IA2999-00609KA1999N-00401MD1310131+9999MW1021REMSYN01170154 25676
0102325960999991980012300004+51783+158033FM-12+001899999V0203601N00301007501CN0200001N9-00401-01101097711ADDAA199000091AG10000AY121999GF108991081051008001999999KA1999N-00401MD1210201+9999MW1021REMSYN00570054
0064325960999991980012303004+51783+158033FM-12+001899999V0203201N00301007501CN0200001N9-00301-01201097581ADDAG11000AY121999GF108991081051008001999999MD1810121+9999MW1021
0064325960999991980012306004+51783+158033FM-12+001899999V0203201N00201007501CN0200001N9-00401-00901097691ADDAG11000AY121999GF108991081051008001999999MD1310101+9999MW1021
0102325960999991980012309004+51783+158033FM-12+001899999V0203201N00301007501CN0200001N9-00401-00801097781ADDAA199000091AG14000AY121999GF108991081051008001999999KA1999M-00301MD1210091+9999MW1021REMSYN00570053
0102325960999991980012312004+51783+158033FM-12+001899999V0203201N00701007501CN0200001N9-00301-00701097881ADDAA199000091AG14000AY131999GF108991081051008001999999KA1999M-00301MD1210101+9999MW1361REMSYN00570053
0064325960999991980012315004+51783+158033FM-12+001899999V0203201N00801220001CN0200001N9-00401-01001097971ADDAG12000AY131999GF104991041051008001001001MD1210091+9999MW1361
0064325960999991980012318004+51783+158033FM-12+001899999V0203201N00701220001CN0200001N9-00401-00901098021ADDAG11000AY131999GF101991011051008001001001MD1210051+9999MW1361
0126325960999991980012321004+51783+158033FM-12+001899999V0203201N00601007501CN0200001N9-00501-01001098211ADDAA199000091AG10000AY131999GF105991051051008001001001IA1209IA2999-00709KA1999N-00501MD1310191+9999MW1361REMSYN01170055 25777
0121325960999991980012400004+51783+158033FM-12+001899999V0203201N00801007501CN0500001N9-00601-01001098451ADDAA199000091AG10000AY131999GF107991061051008001041001KA1999N+99999MD1210241+9999MW1361REMSYN00570055EQDQ01 -00502ATMN  
0064325960999991980012403004+51783+158033FM-12+001899999V0203201N00801220001CN0500001N9-00701-01001098481ADDAG11000AY131999GF103991031001999999041001MD1110031+9999MW1361
0064325960999991980012406004+51783+158033FM-12+001899999V0203201N00601220001CN0500001N9-00801-01301098591ADDAG11000AY131999GF100991001001999999001001MD1310111+9999MW1361
0102325960999991980012409004+51783+158033FM-12+001899999V0203201N00501220001CN0200001N9-01001-01601098631ADDAA199000091AG10000AY131999GF100991001001999999001001KA1999M-00501MD1110041+9999MW1361REMSYN00570055
0102325960999991980012412004+51783+158033FM-12+001899999V0209991C00001220001CN0200001N9-01201-01701098671ADDAA199000091AG10000AY131999GF100991001001999999001001KA1999M-00501MD1210031+9999MW1021REMSYN00570055
0064325960999991980012415004+51783+158033FM-12+001899999V0209991C00001220001CN0200001N9-01301-01801098681ADDAG12000AY101999GF100991001001999999001001MD1110011+9999MW1021
0064325960999991980012418004+51783+158033FM-12+001899999V0209991C00001220001CN0200001N9-01201-01801098661ADDAG12000AY101999GF100991001001999999001001MD1810021+9999MW1021
0126325960999991980012421004+51783+158033FM-12+001899999V0209991C00001220001CN0200001N9-01301-02001098571ADDAA199000091AG14000AY101999GF100991001001999999001001IA1209IA2999-01709KA1999N-01301MD1810091+9999MW1021REMSYN01170063 26777
0064325960999991980012503004+51783+158033FM-12+001899999V0209991C00001220001CN0500001N9-01001+99999098471ADDAG11000AY101999GF100991001001999999001001MD1810091+9999MW1021
0064325960999991980012506004+51783+158033FM-12+001899999V0209991C00001220001CN0500001N9-01001-02101098411ADDAG12000AY101999GF100991001001999999001001MD1710061+9999MW1021
0102325960999991980012509004+51783+158033FM-12+001899999V0209991C00001030001CN0200001N9-01101-02001098431ADDAA199000091AG14000AY111999GF108991081001999999051999KA1999M-01001MD1310021+9999MW1031REMSYN00570060
0102325960999991980012512004+51783+158033FM-12+001899999V0203601N00101030001CN0200001N9-01001-01601098291ADDAA199000091AG14000AY111999GF108991081001999999051999KA1999M-01001MD1810141+9999MW1021REMSYN00570060
0064325960999991980012515004+51783+158033FM-12+001899999V0209991C00001030001CN0200001N9-00801-01601097851ADDAG12000AY121999GF108991081001999999051999MD1810441+9999MW1021
0064325960999991980012518004+51783+158033FM-12+001899999V0209991C00001030001CN0200001N9-00501-00701097551ADDAG12000AY121999GF108991021051008001071999MD1710301+9999MW1021
0126325960999991980012521004+51783+158033FM-12+001899999V0203201N00601030001CN0200001N9-00401-00601097351ADDAA199000091AG14000AY131999GF108991021091008001071999IA1209IA2999-01709KA1999N-01101MD1710201+9999MW1361REMSYN01170061 26777
0102325960999991980012600004+51783+158033FM-12+001899999V0203201N00601007501CN0500001N9-00601-01301097481ADDAA199000091AG10000AY131999GF108991081051008001999999KA1999N-01101MD1310131+9999MW1361REMSYN00570061
0064325960999991980012603004+51783+158033FM-12+001899999V0203201N00601007501CN0500001N9-00601-01101097491ADDAG11000AY131999GF107991061051008001041001MD1110011+9999MW1361
0064325960999991980012606004+51783+158033FM-12+001899999V0203201N00501007501CN0500001N9-00401-00901097821ADDAG11000AY131999GF108991081051008001999999MD1310331+9999MW1361
0102325960999991980012612004+51783+158033FM-12+001899999V0203201N00201220001CN0200001N9-00401-00901098281ADDAA199000091AG10000AY131999GF103991031001999999051001KA1999M-00401MD1210241+9999MW1021REMSYN00570054
0064325960999991980012615004+51783+158033FM-12+001899999V0209991C00001007501CN0200001N9-00401-00901098501ADDAG11000AY111999GF108991081051008001999999MD1210221+9999MW1021
0064325960999991980012618004+51783+158033FM-12+001899999V0209991C00001007501CN0200001N9-00601-01201098741ADDAG11000AY111999GF108991081051008001999999MD1210241+9999MW1021
0140325960999991980012621004+51783+158033FM-12+001899999V0209991C00001007501CN0200001N9-00601-01001099111ADDAA199000091AG10000AY121999GF108991081051008001999999IA1209IA2999-01109KA1999N-00701MD1210371+9999MW1021WG199990099999REMSYN01170057 26177
0121325960999991980012700004+51783+158033FM-12+001899999V0209991C00001004201CN0040001N9-00301-00501099361ADDAA199000391AG10000AY171999GF108991999071004501021999KA1999N-00701MD1210251+9999MW1701REMSYN00579357EQDQ01+000082SCOTLC
0083325960999991980012703004+51783+158033FM-12+001899999V0209991C00001004201CN0040001N9-00201-00401099581ADDAG12000AY171999GF108991999071004501021999MD1210221+9999MW1701EQDQ01+000082SCOTLC
0083325960999991980012706004+51783+158033FM-12+001899999V0209991C00001007501CN0040001N9-00201-00501099911ADDAG12000AY171999GF108991999071008001021999MD1210331+9999MW1701EQDQ01+000082SCOTLC
0102325960999991980012709004+51783+158033FM-12+001899999V0209991C00001030001CN0040001N9-00301-00601100211ADDAA199001091AG10000AY171999GF105991051001999999041001KA1999M-00201MD1210301+9999MW1701REMSYN00570152
0102325960999991980012712004+51783+158033FM-12+001899999V0203201N00101030001CN0200001N9-00901-01401100571ADDAA199001091AG10001AY171999GF105991051001999999041001KA1999M-00201MD1210351+9999MW1021REMSYN00570152
0064325960999991980012715004+51783+158033FM-12+001899999V0203601N00101220001CN0200001N9-00801-01301100831ADDAG12000AY111999GF103991031001999999031001MD1210261+9999MW1021
0064325960999991980012718004+51783+158033FM-12+001899999V0200501N00201030001CN0200001N9-00901-01601101121ADDAG12000AY111999GF105991051001999999031001MD1210271+9999MW1021
0149325960999991980012721004+51783+158033FM-12+001899999V0201401N00201007501CN0200001N9-00601-01001101231ADDAA199000091AG10000AJ100009199999999AY121999GF108991081051008001999999IA1209IA2999-01609KA1999N-01001MD1110131+9999MW1021REMSYN01770060 20060 26677
0102325960999991980012800004+51783+158033FM-12+001899999V0201101N00201007501CN0200001N9-00201-00501101331ADDAA199000091AG10000AY121999GF108991081051008001999999KA1999N-01001MD1210111+9999MW1021REMSYN00570060
0064325960999991980012803004+51783+158033FM-12+001899999V0200901N00201007501CN0200001N9-00101-00601101281ADDAG12000AY121999GF106991061051008001001001MD1810051+9999MW1021
0064325960999991980012806004+51783+158033FM-12+001899999V0209991C00001007501CN0200001N9-00301-00601101201ADDAG12000AY121999GF108991081051008001999999MD1710081+9999MW1021
0102325960999991980012809004+51783+158033FM-12+001899999V0209991C00001007501CN0200001N9-00201-00501101121ADDAA199000091AG14000AY121999GF105991051051008001001001KA1999M-00101MD1710081+9999MW1021REMSYN00570051
0102325960999991980012812004+51783+158033FM-12+001899999V0209991C00001030001CN0200001N9-00501-00801100941ADDAA199000091AG14000AY121999GF106991031051008001041001KA1999M-00101MD1810191+9999MW1021REMSYN00570051
0064325960999991980012815004+51783+158033FM-12+001899999V0200501N00201007501CN0200001N9-00401-00701100771ADDAG12000AY121999GF108991081051008001999999MD1710171+9999MW1021
0064325960999991980012818004+51783+158033FM-12+001899999V0209991C00001007501CN0200001N9-00301-00501100601ADDAG12000AY121999GF108991081051008001999999MD1710161+9999MW1021
0126325960999991980012821004+51783+158033FM-12+001899999V0209991C00001004201CN0040001N9-00301-00501100481ADDAA199999929AG10001AY181999GF108991081091004501999999IA1319IA2999-01009KA1999N-00501MD1710121+9999MW1851REMSYN01179755 26097
0102325960999991980012900004+51783+158033FM-12+001899999V0200501N00201004201CN0040001N9+00101+00001100461ADDAA199000491AG10001AY181999GF108991081091004501999999KA1999N-00501MD1610021+9999MW1851REMSYN00579455
0064325960999991980012903004+51783+158033FM-12+001899999V0200501N00301004201CN0040001N9+00101+00001100331ADDAG12001AY181999GF108991081091004501999999MD1810131+9999MW1851
0064325960999991980012906004+51783+158033FM-12+001899999V0200501N00601004201CN0040001N9+00101-00101100351ADDAG12001AY181999GF108991081091004501999999MD1310021+9999MW1851
0102325960999991980012909004+51783+158033FM-12+001899999V0200501N00401004201CN0040001N9+00001-00101100391ADDAA199002091AG10001AY181999GF108991081091004501999999KA1999M+00101MD1310041+9999MW1851REMSYN00570201
0102325960999991980012912004+51783+158033FM-12+001899999V0200501N00401004201CN0040001N9+00001-00901100401ADDAA199000291AG10001AY181999GF108991081091004501999999KA1999M+00101MD1110011+9999MW1851REMSYN00579201
0064325960999991980012915004+51783+158033FM-12+001899999V0200501N00201004201CN0040001N9+00001+00001100351ADDAG12001AY181999GF108991081091004501999999MD1810051+9999MW1851
0126325960999991980012921004+51783+158033FM-12+001899999V0203601N00201004201CN0040001N9-00201-00401100351ADDAA199004091AG10001AY181999GF108991081091004501999999IA1209IA2999-00209KA1999N-00201MD1410001+9999MW1851REMSYN01170452 25277
0121325960999991980013000004+51783+158033FM-12+001899999V0209991C00001004201CN0020001N9-00301-00501100341ADDAA199004091AG10003AY181999GF108991081091004501999999KA1999N+99999MD1810011+9999MW1861REMSYN00570452EQDQ01 -00202ATMN  
0064325960999991980013003004+51783+158033FM-12+001899999V0203601N00201004201CN0020001N9-00301-00501100321ADDAG12003AY181999GF108991081091004501999999MD1810021+9999MW1861
0064325960999991980013006004+51783+158033FM-12+001899999V0203201N00301004201CN0020001N9-00401-00601100561ADDAG12003AY181999GF108991081091004501999999MD1310241+9999MW1861
0102325960999991980013009004+51783+158033FM-12+001899999V0203201N00201007501CN0200001N9-00501-00601100741ADDAA199013091AG10002AY181999GF108991081041008001999999KA1999M-00201MD1210181+9999MW1021REMSYN00571352
0102325960999991980013012004+51783+158033FM-12+001899999V0209991C00001220001CN0200001N9-00601-00901101031ADDAA199012091AG10002AY181999GF101991011001999999061001KA1999M-00201MD1210281+9999MW1021REMSYN00571252
0064325960999991980013015004+51783+158033FM-12+001899999V0203201N00401220001CN0200001N9-00701-01001101251ADDAG12000AY101999GF100991001001999999001001MD1210221+9999MW1021
0064325960999991980013018004+51783+158033FM-12+001899999V0202701N00501220001CN0200001N9-00801-01201101471ADDAG12000AY101999GF100991001001999999001001MD1210221+9999MW1021
0126325960999991980013021004+51783+158033FM-12+001899999V0209991C00001220001CN0200001N9-00901-01501101591ADDAA199000091AG10000AY101999GF100991001001999999001001IA1209IA2999-01009KA1999N-00901MD1210121+9999MW1021REMSYN01170059 26077
0102325960999991980013100004+51783+158033FM-12+001899999V0202701N00101220001CN0500001N9-00701-01201101761ADDAA199000091AG14000AY101999GF100991001001999999001001KA1999N-00901MD1210171+9999MW1021REMSYN00570059
0064325960999991980013103004+51783+158033FM-12+001899999V0202701N00101220001CN0500001N9-00501-01201101701ADDAG12000AY101999GF100991001001999999001001MD1810061+9999MW1021
0064325960999991980013106004+51783+158033FM-12+001899999V0200501N00301030001CN0200001N9-00501-00901101671ADDAG12000AY111999GF108991021051008001011999MD1710031+9999MW1031
0102325960999991980013109004+51783+158033FM-12+001899999V0200501N00401007501CN0200001N9-00401-00801101651ADDAA199000091AG14000AY121999GF108991081051008001999999KA1999M-00401MD1710021+9999MW1021REMSYN00570054
0138325960999991980013112004+51783+158033FM-12+001899999V0200501N01201007501CN0200001N9-00201-00701101121ADDAA199000091AG14000AY131999GF108991081051008001999999KA1999M+99999MD1810521+9999MW1361OA199901401REMSYN01170054 91114EQDQ01 -00402ATMX  
0089325960999991980013115004+51783+158033FM-12+001899999V0200501N01201007501CN0200001N9-00201-00701100461ADDAG12000AY131999GF108991081051008001999999MD1710461+9999MW1361OA199901401REMSYN00591114
0089325960999991980013118004+51783+158033FM-12+001899999V0200901N01401007501CN0200001N9-00201-00601100151ADDAG12000AY131999GF108991081051008001999999MD1610311+9999MW1371OA199901601REMSYN00591116
0165325960999991980013121004+51783+158033FM-12+001899999V0200901N02001000301CN0002001N9+00001-00301099921ADDAA199000491AG10000AY131999GA1091+999999999GF109991091999999999999999IA1209IA2999-00709KA1999N-00401MD1710231+9999MW1391OA199902401REMSYN02379454 91124 92382 25777
0125325960999991980020100004+51783+158033FM-12+001899999V0200501N02001004201CN0002001N9+00001-00101099681ADDAA199001091AG10001AY161999GF108991081091004501999999KA1999N-00401MD1710241+9999MW1371OA199902801REMSYN01770154 91128 92376
0095325960999991980020103004+51783+158033FM-12+001899999V0200501N02001004201CN0002001N9+00001+00001099231ADDAG12003AY181999GF108991081091004501999999MD1710481+9999MW1861OA199902401REMSYN01191124 92372
0095325960999991980020106004+51783+158033FM-12+001899999V0200501N01601004201CN0010001N9+00001+00001099161ADDAG12003AY181999GF108991081091004501999999MD1610081+9999MW1861OA199902401REMSYN01191124 92351
0125325960999991980020109004+51783+158033FM-12+001899999V0200501N01401004201CN0010001N9+00101+00001099071ADDAA199012091AG10001AY181999GF108991081091004501999999KA1999M+00101MD1710091+9999MW1851OA199902001REMSYN01771201 91120 92351
0133325960999991980020112004+51783+158033FM-12+001899999V0209991C00001004201CN0200001N9+00001-00101099091ADDAA199011091AG10002AY181999GF108991081041004501999999KA1999M+00101MD1310021+9999MW1021OA199901801WG199090099999REMSYN01171101 91118
0064325960999991980020115004+51783+158033FM-12+001899999V0209991C00001007501CN0200001N9+00001-00201099001ADDAG12000AY121999GF108991081041008001999999MD1810031+9999MW1021
0064325960999991980020118004+51783+158033FM-12+001899999V0209991C00001007501CN0200001N9+00001-00401099401ADDAG12000AY121999GF108991081051008001999999MD1310041+9999MW1021
0126325960999991980020121004+51783+158033FM-12+001899999V0203601N00201004201CN0200001N9+00001-00301099021ADDAA199001091AG10000AY121999GF108991081051004501999999IA1209IA2999-00109KA1999N+00001MD1810021+9999MW1021REMSYN01170150 25177
0121325960999991980020200004+51783+158033FM-12+001899999V0209991C00001004201CN0040001N9+00001-00201999999ADDAA199000691AG10001AY181999GF108991081091004501999999KA1999N+00001MD1810101+9999MW1851REMSYN00579650EQDQ01+099923APOSLP
0064325960999991980020203004+51783+158033FM-12+001899999V0203201N00201004201CN0040001N9-00101-00501098681ADDAG12001AY181999GF108991081091004501999999MD1710141+9999MW1851
0083325960999991980020206004+51783+158033FM-12+001899999V0203201N00201004201CN0040001N9+99999+99999098571ADDAG12001AY181999GF108991081091004501999999MD1710111+9999MW1851EQDQ01+026123ATOT  
0102325960999991980020209004+51783+158033FM-12+001899999V0203201N00201004201CN0040001N9-00101-00501098541ADDAA199003091AG10001AY181999GF108991081091004501999999KA1999M+00001MD1610031+9999MW1851REMSYN00570350
0102325960999991980020212004+51783+158033FM-12+001899999V0202701N00301007501CN0200001N9-00101-00501098421ADDAA199002091AG10002AY181999GF106991061041008001001001KA1999M+00001MD1810111+9999MW1261REMSYN00570250
0064325960999991980020215004+51783+158033FM-12+001899999V0203201N00201007501CN0200001N9-00101-00601098331ADDAG12000AY121999GF108991081051008001999999MD1710091+9999MW1021
0064325960999991980020218004+51783+158033FM-12+001899999V0209991C00001007501CN0040001N9-00201-00401098441ADDAG12001AY181999GF108991081091008001999999MD1310101+9999MW1851
0126325960999991980020221004+51783+158033FM-12+001899999V0203201N00101004201CN0040001N9-00201-00301098941ADDAA199001091AG10001AY181999GF108991081091004501999999IA1319IA2999-00309KA1999N-00201MD1310541+9999MW1851REMSYN01170152 25397
0102325960999991980020300004+51783+158033FM-12+001899999V0203601N00201004201CN0040001N9-00201-00401098841ADDAA199001091AG10001AY181999GF108991081091004501999999KA1999N-00201MD1810141+9999MW1851REMSYN00570152
0064325960999991980020303004+51783+158033FM-12+001899999V0203201N00201004201CN0040001N9-00201-00601098701ADDAG12001AY181999GF108991081091004501999999MD1710141+9999MW1851
0064325960999991980020306004+51783+158033FM-12+001899999V0203201N00201004201CN0040001N9-00201-00401098851ADDAG12001AY181999GF108991081091004501999999MD1310151+9999MW1851
0102325960999991980020309004+51783+158033FM-12+001899999V0209991C00001004201CN0040001N9-00201-00401099071ADDAA199004091AG10001AY181999GF108991081091004501999999KA1999M-00101MD1210221+9999MW1851REMSYN00570451
0102325960999991980020312004+51783+158033FM-12+001899999V0203601N00201004201CN0040001N9-00201-00401099411ADDAA199004091AG10001AY181999GF108991081091004501999999KA1999M-00101MD1210341+9999MW1851REMSYN00570451
0064325960999991980020315004+51783+158033FM-12+001899999V0209991C00001004201CN0040001N9-00201-00401099501ADDAG12001AY181999GF108991081091004501999999MD1110091+9999MW1851
0126325960999991980020321004+51783+158033FM-12+001899999V0200501N00201007501CN0040001N9+00001+00001099571ADDAA199008091AG10001AY181999GF108991081091008001999999IA1209IA2999-00409KA1999N-00201MD1310181+9999MW1851REMSYN01170852 25477
0102325960999991980020400004+51783+158033FM-12+001899999V0200501N00801007501CN0040001N9+00001-00101099751ADDAA199008091AG10003AY181999GF108991081091008001999999KA1999N-00201MD1210181+9999MW1861REMSYN00570852
0095325960999991980020403004+51783+158033FM-12+001899999V0200501N01201007501CN0010001N9+00001-00101099761ADDAG12003AY181999GF108991081091008001999999MD1110011+9999MW1861OA199901601REMSYN01191116 92352
0095325960999991980020406004+51783+158033FM-12+001899999V0200501N01401007501CN0010001N9+00001+00001099941ADDAG12003AY181999GF108991081091008001999999MD1310181+9999MW1861OA199901801REMSYN01191118 92352
0125325960999991980020409004+51783+158033FM-12+001899999V0200501N01401004201CN0010001N9-00101-00201100231ADDAA199011091AG10003AY181999GF108991081091004501999999KA1999M+00001MD1310291+9999MW1861OA199901601REMSYN01771100 91116 92352
0125325960999991980020412004+51783+158033FM-12+001899999V0200501N01401004201CN0010001N9+00001-00201100401ADDAA199012091AG10003AY181999GF108991081091004501999999KA1999M+00001MD1210171+9999MW1861OA199901601REMSYN01771200 91116 92352
0095325960999991980020415004+51783+158033FM-12+001899999V0200501N01201004201CN0010001N9+00001-00101100531ADDAG12003AY181999GF108991081091004501999999MD1210131+9999MW1861OA199901601REMSYN01191116 92352
0095325960999991980020418004+51783+158033FM-12+001899999V0200501N01201007501CN0010001N9-00101-00201100651ADDAG12003AY181999GF108991081091008001999999MD1210121+9999MW1861OA199901401REMSYN01191114 92351
0143325960999991980020421004+51783+158033FM-12+001899999V0200501N00901007501CN0200001N9-00201-00601100761ADDAA199000091AG14002AY181999GF108991081041008001999999IA1209IA2999-00209KA1999N-02501MD1210111+9999MW1021OA199901201REMSYN01770075 25277 91112
0102325960999991980020500004+51783+158033FM-12+001899999V0200501N00401004201CN0040001N9-00201-00401100791ADDAA199006091AG10001AY181999GF108991081091004501999999KA1999N-00201MD1110031+9999MW1851REMSYN00570652
0064325960999991980020503004+51783+158033FM-12+001899999V0209991C00001007501CN0040001N9+00001-00301100671ADDAG12001AY181999GF108991081091008001999999MD1810121+9999MW1851
0064325960999991980020506004+51783+158033FM-12+001899999V0200501N00101007501CN0200001N9-00101-00801100591ADDAG12002AY181999GF108991081041008001999999MD1710081+9999MW1021
0102325960999991980020509004+51783+158033FM-12+001899999V0209991C00001007501CN0200001N9-00401-01001100471ADDAA199001091AG10000AY121999GF108991081051008001999999KA1999M+00001MD1710121+9999MW1021REMSYN00570100
0102325960999991980020512004+51783+158033FM-12+001899999V0209991C00001007501CN0200001N9-00501-01001100321ADDAA199001091AG10000AY121999GF108991081051008001999999KA1999M+00001MD1710151+9999MW1021REMSYN00570100
0064325960999991980020515004+51783+158033FM-12+001899999V0203601N00101007501CN0200001N9-00501-00901100171ADDAG12000AY121999GF108991081051008001999999MD1710151+9999MW1021
0064325960999991980020518004+51783+158033FM-12+001899999V0209991C00001007501CN0200001N9-00401-01001099791ADDAG12000AY121999GF108991081051008001999999MD1810381+9999MW1021
0126325960999991980020521004+51783+158033FM-12+001899999V0209991C00001007501CN0200001N9-00501-01001099581ADDAA199000091AG14000AY121999GF108991081051008001999999IA1209IA2999-00909KA1999N-00501MD1710211+9999MW1021REMSYN01170055 25977
0102325960999991980020600004+51783+158033FM-12+001899999V0209991C00001004201CN0040001N9-00201-00401099371ADDAA199000491AG10001AY181999GF108991081091004501999999KA1999N-00501MD1710211+9999MW1851REMSYN00579455
0064325960999991980020603004+51783+158033FM-12+001899999V0200501N00201004201CN0040001N9-00301-00601099101ADDAG12001AY181999GF108991081091004501999999MD1710271+9999MW1851
0064325960999991980020606004+51783+158033FM-12+001899999V0200501N00201004201CN0040001N9-00301-00401098941ADDAG12001AY181999GF108991081091004501999999MD1710161+9999MW1851
0102325960999991980020609004+51783+158033FM-12+001899999V0209991C00001004201CN0040001N9-00201-00301098991ADDAA199002091AG10001AY181999GF108991081091004501999999KA1999M-00201MD1610051+9999MW1851REMSYN00570252
0102325960999991980020612004+51783+158033FM-12+001899999V0200901N00201004201CN0040001N9-00201-00401098891ADDAA199002091AG10001AY181999GF108991081091004501999999KA1999M-00201MD1410001+9999MW1851REMSYN00570252
0064325960999991980020615004+51783+158033FM-12+001899999V0200501N00201004201CN0040001N9-00201-00501098871ADDAG12001AY181999GF108991081091004501999999MD1810021+9999MW1851
0064325960999991980020618004+51783+158033FM-12+001899999V0200501N00201004201CN0040001N9-00301-00601098851ADDAG12001AY181999GF108991081091004501999999MD1710021+9999MW1851
0178325960999991980020621004+51783+158033FM-12+001899999V0200501N01001004201CN0200001N9-00401-00701999999ADDAA199002091AG10002AY181999GF108991999091004501051999IA1209IA2999-00509KA1999N-00401MD1710031+9999MW1361OA199901401REMSYN01770254 91114 25577EQDQ01+000082SCOTLCQ02+099823APOSLP
0119325960999991980020700004+51783+158033FM-12+001899999V0200501N01201007501CN0200001N9-00301-00801098901ADDAA199001091AG10002AY181999GF105991051051008001001001KA1999N-00401MD1310081+9999MW1361OA199901401REMSYN01170154 91114
0089325960999991980020703004+51783+158033FM-12+001899999V0200501N01201030001CN0200001N9-00301-01001098881ADDAG11000AY131999GF106991061001999999071001MD1810021+9999MW1361OA199901601REMSYN00591116
0089325960999991980020706004+51783+158033FM-12+001899999V0200501N00301030001CN0200001N9-00301-01001098961ADDAG11000AY131999GF107991071001999999071001MD1310081+9999MW1021OA199901601REMSYN00591116
0102325960999991980020709004+51783+158033FM-12+001899999V0209991C00001220001CN0200001N9-00701-01301099021ADDAA199000091AG10000AY111999GF103991031001999999041001KA1999M-00301MD1210061+9999MW1021REMSYN00570053
0116325960999991980020712004+51783+158033FM-12+001899999V0209991C00001220001CN0200001N9-00701-01301099001ADDAA199000091AG10000AY111999GF100991001001999999001001KA1999M-00301MD1810021+9999MW1021WG199370099999REMSYN00570053
0078325960999991980020715004+51783+158033FM-12+001899999V0209991C00001220001CN0200001N9-00801-01501098971ADDAG12000AY101999GF100991001001999999001001MD1710031+9999MW1021WG199990399999
0064325960999991980020718004+51783+158033FM-12+001899999V0209991C00001220001CN0200001N9-00801-01501098971ADDAG12000AY101999GF100991001001999999001001MD1410001+9999MW1021
0126325960999991980020721004+51783+158033FM-12+001899999V0203601N00201220001CN0200001N9-01001-01801098961ADDAA199000091AG14000AY101999GF100991001001999999001001IA1209IA2999-01709KA1999N-01001MD1810021+9999MW1021REMSYN01170060 26777
0102325960999991980020800004+51783+158033FM-12+001899999V0200201N00101220001CN0500001N9-00901-01701099091ADDAA199000091AG10000AY101999GF103991021051008001041001KA1999N-01001MD1310131+9999MW1021REMSYN00570060
0064325960999991980020803004+51783+158033FM-12+001899999V0200501N00101007501CN0500001N9-00801+99999099091ADDAG11000AY111999GF108991061051008001041999MD1110011+9999MW1031
0064325960999991980020806004+51783+158033FM-12+001899999V0203601N00201007501CN0500001N9-01101-01901099161ADDAG11000AY111999GF106991061051008001001001MD1310061+9999MW1021
0102325960999991980020809004+51783+158033FM-12+001899999V0200201N00301007501CN0200001N9-01301-02001099351ADDAA199000091AG10000AY121999GF105991051051008001001001KA1999M-00801MD1310191+9999MW1021REMSYN00570058
0102325960999991980020812004+51783+158033FM-12+001899999V0209999999999220001CN0200001N9-01401-02201099351ADDAA199000091AG10000AY121999GF104991041051008001001001KA1999M-00801MD1410001+9999MW1021REMSYN00570058
0064325960999991980020815004+51783+158033FM-12+001899999V0209991C00001220001CN0200001N9-01501-02201099351ADDAG11000AY111999GF103991031051008001001001MD1410001+9999MW1021
0078325960999991980020818004+51783+158033FM-12+001899999V0203601N00201220001CN0200001N9-01401-02101099351ADDAG11000AY111999GF103991031051008001001001MD1410001+9999MW1021WG199990299999
0126325960999991980020821004+51783+158033FM-12+001899999V0203601N00201220001CN0200001N9-01401-02201099411ADDAA199000091AG10000AY101999GF103991031051008001001001IA1209IA2999-02009KA1999N-01501MD1310061+9999MW1021REMSYN01170065 27077
0116325960999991980020900004+51783+158033FM-12+001899999V0209991C00001220001CN0500001N9-01101-02201099481ADDAA199000091AG10000AY101999GF100991001001999999001001KA1999N-01501MD1210071+9999MW1021WG199990299999REMSYN00570065
0064325960999991980020903004+51783+158033FM-12+001899999V0203201N00201220001CN0500001N9-01001-02501099401ADDAG11000AY101999GF100991001001999999001001MD1810081+9999MW1021
0064325960999991980020906004+51783+158033FM-12+001899999V0203201N00201220001CN0500001N9-01301-02701099411ADDAG11000AY101999GF100991001001999999001001MD1310011+9999MW1021
0102325960999991980020909004+51783+158033FM-12+001899999V0203201N00201220001CN0200001N9-01601-02601099401ADDAA199000091AG10000AY101999GF100991001001999999001001KA1999M-01101MD1810011+9999MW1021REMSYN00570061
0102325960999991980020912004+51783+158033FM-12+001899999V0203201N00401220001CN0200001N9-01501-02401099321ADDAA199000091AG10000AY101999GF100991001001999999001001KA1999M-01101MD1810081+9999MW1021REMSYN00570061
0056325960999991980020915004+51783+158033FM-12+001899999V0203201N00501220001CN0200001N9-01501-02301099121ADDAG11000GF100991001001999999001001MD1810201+9999MW1021
0064325960999991980020918004+51783+158033FM-12+001899999V0203201N00501220001CN0200001N9-01501-02301099171ADDAG11000AY101999GF100991001001999999001001MD1310051+9999MW1021
0126325960999991980020921004+51783+158033FM-12+001899999V0203401N00301220001CN0200001N9-01001-02401099131ADDAA199000091AG10000AY101999GF100991001001999999001001IA1209IA2999-02209KA1999N-01601MD1810041+9999MW1021REMSYN01170066 27275
0102325960999991980021000004+51783+158033FM-12+001899999V0203201N00401220001CN0500001N9-01401-02301099041ADDAA199000091AG10000AY131999GF100991001001999999001001KA1999N-01601MD1810091+9999MW1361REMSYN00570066
0064325960999991980021003004+51783+158033FM-12+001899999V0203201N00501220001CN0500001N9-01301-02301098831ADDAG11000AY131999GF100991001001999999001001MD1810211+9999MW1361
0064325960999991980021006004+51783+158033FM-12+001899999V0203201N00601220001CN0500001N9-01401-02301098751ADDAG11000AY131999GF100991001001999999001001MD1610081+9999MW1361
0119325960999991980021009004+51783+158033FM-12+001899999V0203201N01401220001CN0200001N9-01401-02201098911ADDAA199000091AG10000AY131999GF100991001001999999001001KA1999M-01301MD1310161+9999MW1361OA199901601REMSYN01170063 91116
0106325960999991980021012004+51783+158033FM-12+001899999V0203201N01401220001CN0200001N9+99999+99999999999ADDAA199000091AG10000AY131999GF100991001001999999001001MD1810101+9999MW1361OA199901601REMSYN01170063 91116
0089325960999991980021015004+51783+158033FM-12+001899999V0203201N01401220001CN0200001N9-01501-02301098781ADDAG12000AY131999GF100991001001999999001001MD1610031+9999MW1361OA199901601REMSYN00591116
0089325960999991980021018004+51783+158033FM-12+001899999V0203201N01201220001CN0200001N9-01401-02201098751ADDAG12000AY131999GF100991001001999999001001MD1710031+9999MW1361OA199901601REMSYN00591116
0143325960999991980021021004+51783+158033FM-12+001899999V0203401N01201220001CN0500001N9-01401-02401098761ADDAA199000091AG14000AY131999GF100991001001999999001001IA1209IA2999-01709KA1999N-01601MD1610011+9999MW1361OA199901601REMSYN01770066 26777 91116
0119325960999991980021100004+51783+158033FM-12+001899999V0203201N01201220001CN0500001N9-01201-02301098821ADDAA199000091AG10000AY131999GF100991001001999999001001KA1999N-01601MD1310061+9999MW1361OA199901401REMSYN01170066 91114
0089325960999991980021103004+51783+158033FM-12+001899999V0203201N01201220001CN0500001N9-01301-02201098751ADDAG12000AY131999GF100991001001999999001001MD1810071+9999MW1361OA199901401REMSYN00591114
0089325960999991980021106004+51783+158033FM-12+001899999V0203201N01401220001CN0500001N9-01301-02301098741ADDAG12000AY131999GF100991001001999999001001MD1610011+9999MW1361OA199901601REMSYN00591116
0119325960999991980021109004+51783+158033FM-12+001899999V0203201N01201220001CN0200001N9-01301-02201098981ADDAA199000091AG14000AY131999GF102991021001999999031001KA1999M-01201MD1310241+9999MW1361OA199901601REMSYN01170062 91116
0119325960999991980021112004+51783+158033FM-12+001899999V0203201N01201220001CN0200001N9-01401-02201098911ADDAA199000091AG14000AY131999GF103991031001999999031001KA1999M-01201MD1810071+9999MW1361OA199901601REMSYN01170062 91116
0089325960999991980021115004+51783+158033FM-12+001899999V0203201N01401030001CN0200001N9-01301-02101098871ADDAG12000AY131999GF108991081001999999071081MD1710041+9999MW1361OA199901801REMSYN00591118
0089325960999991980021118004+51783+158033FM-12+001899999V0203201N01201030001CN0200001N9-01301-02301099061ADDAG12000AY131999GF105991051001999999041001MD1310191+9999MW1361OA199901801REMSYN00591118
0143325960999991980021121004+51783+158033FM-12+001899999V0203201N01201030001CN0500001N9-01401-02301099201ADDAA199000091AG14000AY131999GF105991051001999999041001IA1209IA2999-01709KA1999N-01401MD1210141+9999MW1361OA199901601REMSYN01770064 26777 91116
0119325960999991980021200004+51783+158033FM-12+001899999V0203201N01201220001CN0500001N9-01201-02201099121ADDAA199000091AG10000AY131999GF103991031001999999041001KA1999N-01401MD1810081+9999MW1361OA199901401REMSYN01170064 91114
0050325960999991980021203004+51783+158033FM-12+001899999V0203201N00201220001CN0500001N9-01101+99999099221ADDAG11000AY131999GF100991001001999999001001MW1021
0102325960999991980021209004+51783+158033FM-12+001899999V0203201N00201220001CN0200001N9-01401-02301099471ADDAA199000091AG14000AY101999GF100991001001999999001001KA1999M-01001MD1310291+9999MW1021REMSYN00570060
0116325960999991980021212004+51783+158033FM-12+001899999V0203201N00101220001CN0200001N9-01501-02401099471ADDAA199000091AG14000AY101999GF100991001001999999001001KA1999M-01001MD1410001+9999MW1021WG199990599999REMSYN00570060
0064325960999991980021218004+51783+158033FM-12+001899999V0209991C00001220001CN0200001N9-01501-02501099601ADDAG11000AY101999GF100991001001999999001001MD1210071+9999MW1021
0126325960999991980021221004+51783+158033FM-12+001899999V0209991C00001220001CN0500001N9-01701-02501099691ADDAA199000091AG10000AY101999GF100991001001999999001001IA1209IA2999-02309KA1999N-01701MD1210091+9999MW1021REMSYN01170067 27377
0102325960999991980021300004+51783+158033FM-12+001899999V0202701N00101220001CN0500001N9-01301-02001099741ADDAA199000091AG10000AY101999GF100991001001999999001001KA1999N-01701MD1210051+9999MW1021REMSYN00570067
0064325960999991980021303004+51783+158033FM-12+001899999V0202701N00201220001CN0500001N9-01101-01901099701ADDAG12000AY101999GF100991001001999999001001MD1810041+9999MW1021
0064325960999991980021306004+51783+158033FM-12+001899999V0202701N00301220001CN0500001N9-01301-02201099771ADDAG12000AY101999GF100991001001999999001001MD1310071+9999MW1021
0102325960999991980021312004+51783+158033FM-12+001899999V0209991C00001220001CN0200001N9-01701-02501099921ADDAA199000091AG14000AY101999GF100991001001999999001001KA1999M-01101MD1110031+9999MW1021REMSYN00570061
0064325960999991980021315004+51783+158033FM-12+001899999V0209991C00001220001CN0200001N9-01801-02601099961ADDAG12000AY101999GF100991001001999999001001MD1210041+9999MW1021
0064325960999991980021318004+51783+158033FM-12+001899999V0209991C00001220001CN0200001N9-01501-02401099811ADDAG12000AY101999GF100991001001999999001001MD1810151+9999MW1021
0140325960999991980021321004+51783+158033FM-12+001899999V0203201N00201030001CN0200001N9-01501-02401099741ADDAA199000091AG14000AY111999GF108991081001999999071999IA1209IA2999-02309KA1999N-01901MD1610061+9999MW1031WG199990199999REMSYN01170069 27377
0102325960999991980021400004+51783+158033FM-12+001899999V0203601N00101030001CN0200001N9-01101-01801099671ADDAA199000091AG10000AY111999GF108991081001999999071999KA1999N-01901MD1710071+9999MW1021REMSYN00570069
0089325960999991980021403004+51783+158033FM-12+001899999V0200501N01201030001CN0200001N9-01001-01701099571ADDAG12000AY121999GF108991021051008001071999MD1710101+9999MW1021OA199901401REMSYN00591114
0089325960999991980021406004+51783+158033FM-12+001899999V0200501N01201030001CN0200001N9-00901-01601099421ADDAG12000AY131999GF108991081001999999071999MD1710151+9999MW1361OA199901401REMSYN00591114
0119325960999991980021409004+51783+158033FM-12+001899999V0200501N01201030001CN0200001N9-01001-01501099421ADDAA199000091AG14000AY131999GF108991081001999999071999KA1999M-00901MD1410001+9999MW1361OA199901401REMSYN01170059 91114
0119325960999991980021412004+51783+158033FM-12+001899999V0200501N01001030001CN0200001N9-00901-01901099271ADDAA199000091AG14000AY131999GF108991081001999999071999KA1999M-00901MD1810151+9999MW1361OA199901201REMSYN01170059 91112
0089325960999991980021415004+51783+158033FM-12+001899999V0200501N01001030001CN0200001N9-00801-01801099331ADDAG12000AY131999GF108991081001999999071999MD1310061+9999MW1361OA199901201REMSYN00591112
0126325960999991980021421004+51783+158033FM-12+001899999V0209991C00001007501CN0200001N9-00901-02301099361ADDAA199000091AG10000AY121999GF108991071051008001071999IA1209IA2999-01309KA1999N-01001MD1810041+9999MW1021REMSYN01170060 26377
0102325960999991980021500004+51783+158033FM-12+001899999V0203601N00101007501CN0200001N9-00701-02101099431ADDAA199000091AG14000AY131999GF108991051051008001071999KA1999N-01001MD1310081+9999MW1021REMSYN00570060
0064325960999991980021503004+51783+158033FM-12+001899999V0209991C00001007501CN0200001N9-00501-02101099411ADDAG11000AY121999GF108991051051008001071999MD1810021+9999MW1021
0064325960999991980021506004+51783+158033FM-12+001899999V0209991C00001030001CN0200001N9-00901-01901099501ADDAG11000AY121999GF106991041051008001041001MD1310091+9999MW1021
0102325960999991980021509004+51783+158033FM-12+001899999V0209991C00001220001CN0200001N9-01301-02101099581ADDAA199000091AG10000AY111999GF102991021001999999031001KA1999M-00501MD1210071+9999MW1021REMSYN00570055
0102325960999991980021512004+51783+158033FM-12+001899999V0200501N00201220001CN0200001N9-01201-01901099691ADDAA199000091AG10000AY111999GF100991001001999999001001KA1999M-00501MD1210111+9999MW1021REMSYN00570055
0064325960999991980021515004+51783+158033FM-12+001899999V0209991C00001220001CN0200001N9-01301-02001099761ADDAG12000AY101999GF100991001001999999001001MD1210071+9999MW1021
0064325960999991980021518004+51783+158033FM-12+001899999V0209991C00001030001CN0200001N9-00701-01501099831ADDAG12000AY111999GF108991081001999999071999MD1210071+9999MW1031
0126325960999991980021521004+51783+158033FM-12+001899999V0209991C00001007501CN0200001N9-00801-01101099941ADDAA199000091AG14000AY121999GF108991081051008001999999IA1209IA2999-01709KA1999N-01401MD1210111+9999MW1021REMSYN01170064 26777
0102325960999991980021600004+51783+158033FM-12+001899999V0209991C00001030001CN0200001N9-00701-02001100151ADDAA199000091AG10000AY121999GF108991081001999999071999KA1999N-01401MD1210211+9999MW1021REMSYN00570064
0064325960999991980021603004+51783+158033FM-12+001899999V0209991C00001004201CN0040001N9-00601-00901100261ADDAG12001AY181999GF108991081091004501999999MD1210111+9999MW1851
0064325960999991980021606004+51783+158033FM-12+001899999V0201101N00101004201CN0040001N9-00601-00801100471ADDAG12001AY181999GF108991081091004501999999MD1210211+9999MW1851
0102325960999991980021612004+51783+158033FM-12+001899999V0200901N00101007501CN0200001N9-00901-01001100541ADDAA199001091AG10002AY181999GF105991051051008001001001KA1999M-00501MD1410001+9999MW1021REMSYN00570155
0064325960999991980021615004+51783+158033FM-12+001899999V0203201N00101030001CN0200001N9-00701-00901100561ADDAG11000AY121999GF108991041051008001071999MD1310021+9999MW1021
0064325960999991980021618004+51783+158033FM-12+001899999V0203601N00101007501CN0200001N9-00801-01001100461ADDAG11000AY121999GF108991061051008001071999MD1810101+9999MW1021
0126325960999991980021621004+51783+158033FM-12+001899999V0203601N00201007501CN0200001N9-00701-01001100361ADDAA199000091AG10000AY121999GF108991071051008001071999IA1209IA2999-01309KA1999N-00901MD1710101+9999MW1021REMSYN01170059 26377
0102325960999991980021700004+51783+158033FM-12+001899999V0209991C00001007501CN0040001N9-00701-00801100251ADDAA199000591AG10001AY181999GF108991081091008001999999KA1999N-00901MD1710111+9999MW1851REMSYN00579559
0064325960999991980021703004+51783+158033FM-12+001899999V0209991C00001007501CN0040001N9-00601-00701100121ADDAG12001AY181999GF108991081091008001999999MD1710131+9999MW1851
0064325960999991980021706004+51783+158033FM-12+001899999V0200501N00101007501CN0100001N9-00601-00801100041ADDAG12001AY181999GF107991071091008001001001MD1710081+9999MW1851
0102325960999991980021709004+51783+158033FM-12+001899999V0209991C00001007501CN0200001N9-00701-01101100011ADDAA199003091AG10002AY181999GF106991061091008001001001KA1999M-00601MD1610031+9999MW1261REMSYN00570356
0102325960999991980021712004+51783+158033FM-12+001899999V0209991C00001220001CN0200001N9-00901-01301099931ADDAA199003091AG10002AY181999GF102991021041008001001001KA1999M-00601MD1710081+9999MW1021REMSYN00570356
0064325960999991980021715004+51783+158033FM-12+001899999V0209991C00001007501CN0200001N9-01101-01601099971ADDAG12000AY121999GF105991051041008001001001MD1510041+9999MW1021
0064325960999991980021718004+51783+158033FM-12+001899999V0209991C00001220001CN0200001N9-01101-01601099931ADDAG12000AY111999GF100991001001999999001001MD1810041+9999MW1011
0126325960999991980021721004+51783+158033FM-12+001899999V0209991C00001220001CN0200001N9-01001-01501099981ADDAA199000091AG14000AY101999GF100991001001999999001001IA1319IA2999-01709KA1999N-01101MD1310051+9999MW1021REMSYN01170061 26797
0102325960999991980021800004+51783+158033FM-12+001899999V0209991C00001220001CN0500001N9-00901-01301100041ADDAA199000091AG10000AY101999GF102991021051008001001001KA1999N-01101MD1210051+9999MW1021REMSYN00570061
0064325960999991980021803004+51783+158033FM-12+001899999V0209991C00001004201CN0040001N9-00601-00901100051ADDAG12001AY181999GF108991081091004501999999MD1110011+9999MW1851
0064325960999991980021806004+51783+158033FM-12+001899999V0209991C00001004201CN0040001N9-00701-00901100091ADDAG12001AY181999GF106991061091004501001001MD1310041+9999MW1851
0102325960999991980021809004+51783+158033FM-12+001899999V0209991C00001220001CN0200001N9-00901-01201100361ADDAA199002091AG10002AY181999GF102991021041008001001001KA1999M-00501MD1310271+9999MW1021REMSYN00570255
0102325960999991980021812004+51783+158033FM-12+001899999V0209991C00001220001CN0200001N9-00801-01001100511ADDAA199002091AG10002AY181999GF100991001001999999001001KA1999M-00501MD1210151+9999MW1021REMSYN00570255
0064325960999991980021815004+51783+158033FM-12+001899999V0209991C00001220001CN0200001N9-01001-01201100641ADDAG11000AY101999GF100991001001999999001001MD1210131+9999MW1021
0064325960999991980021818004+51783+158033FM-12+001899999V0209991C00001220001CN0200001N9-01001-01401100821ADDAG11000AY101999GF102991021051008001001001MD1210181+9999MW1021
0126325960999991980021821004+51783+158033FM-12+001899999V0203601N00201030001CN0040001N9-00901-01101100981ADDAA199000091AG10000AY111999GF108991021051008001071999IA1319IA2999-01909KA1999N-01101MD1210161+9999MW1401REMSYN01170061 26997
0102325960999991980021900004+51783+158033FM-12+001899999V0209991C00001030001CN0500001N9-00501-00901101131ADDAA199000091AG10000AY111999GF105991011051008001041001KA1999N-01101MD1210151+9999MW1031REMSYN00570061
0064325960999991980021903004+51783+158033FM-12+001899999V0209991C00001030001CN0500001N9-00401-00901101111ADDAG11000AY121999GF106991061001999999041001MD1810021+9999MW1021
0083325960999991980021906004+51783+158033FM-12+001899999V0209991C00001220001CN0500001N9-00601-00801101201ADDAG11000AY111999GF100991001001999999001001MD1810041+9999MW1011EQDQ01+000032SCOTCV
0102325960999991980021909004+51783+158033FM-12+001899999V0209991C00001220001CN0200001N9-00701-01201101221ADDAA199000091AG10000AY101999GF100991001001999999001001KA1999M-00401MD1110031+9999MW1021REMSYN00570054
0064325960999991980021915004+51783+158033FM-12+001899999V0209991C00001220001CN0200001N9-00801-01301101141ADDAG11000AY101999GF100991001001999999001001MD1810081+9999MW1021
0064325960999991980021918004+51783+158033FM-12+001899999V0203601N00101220001CN0200001N9-00801-01401101171ADDAG11000AY101999GF100991001001999999001001MD1310031+9999MW1021
0126325960999991980021921004+51783+158033FM-12+001899999V0209991C00001030001CN0200001N9-00501-01301101161ADDAA199000091AG14000AY111999GF108991021051008001051999IA1319IA2999-01309KA1999N-00801MD1810011+9999MW1031REMSYN01170058 26397
0102325960999991980022000004+51783+158033FM-12+001899999V0209991C00001075001CN0500001N9-00301-01101101091ADDAA199000091AG10000AY121999GF106991001001999999001021KA1999N-00801MD1810061+9999MW1021REMSYN00570058
0064325960999991980022003004+51783+158033FM-12+001899999V0203201N00101075001CN0500001N9-00301-01301100891ADDAG11000AY121999GF105991001001999999001021MD1810201+9999MW1021
0064325960999991980022006004+51783+158033FM-12+001899999V0209991C00001220001CN0500001N9-00401-01401100871ADDAG11000AY111999GF100991001001999999001001MD1610031+9999MW1021
0102325960999991980022009004+51783+158033FM-12+001899999V0209991C00001220001CN0200001N9-00701-01601100801ADDAA199000091AG14000AY101999GF100991001001999999001001KA1999M-00301MD1810071+9999MW1021REMSYN00570053
0102325960999991980022012004+51783+158033FM-12+001899999V0209991C00001220001CN0200001N9-00801-01601100741ADDAA199000091AG14000AY101999GF100991001001999999001001KA1999M-00301MD1710061+9999MW1021REMSYN00570053
0064325960999991980022015004+51783+158033FM-12+001899999V0209991C00001220001CN0200001N9-00801-01701100641ADDAG12000AY101999GF100991001001999999001001MD1710101+9999MW1021
0064325960999991980022018004+51783+158033FM-12+001899999V0209991C00001220001CN0200001N9-00801-01701100621ADDAG12000AY101999GF100991001001999999001001MD1610021+9999MW1021
0126325960999991980022021004+51783+158033FM-12+001899999V0203601N00101220001CN0200001N9-00801-01501100551ADDAA199000091AG14000AY101999GF102991021001999999041001IA1319IA2999-01709KA1999N-00901MD1810071+9999MW1021REMSYN01170059 26797
0064325960999991980022103004+51783+158033FM-12+001899999V0203601N00201220001CN0500001N9-00401-01401100441ADDAG11000AY101999GF100991001001999999001001MD1810141+9999MW1021
0064325960999991980022106004+51783+158033FM-12+001899999V0203201N00301220001CN0500001N9-00501-01401100401ADDAG11000AY121999GF100991001001999999001001MD1610041+9999MW1021
0102325960999991980022109004+51783+158033FM-12+001899999V0203601N00201220001CN0200001N9-00701-01401100411ADDAA199000091AG10000AY101999GF102991021001999999041001KA1999M-00401MD1410001+9999MW1021REMSYN00570054
0102325960999991980022112004+51783+158033FM-12+001899999V0203601N00101030001CN0200001N9-00601-01201100421ADDAA199000091AG10000AY111999GF105991051001999999051001KA1999M-00401MD1310011+9999MW1031REMSYN00570054
0064325960999991980022115004+51783+158033FM-12+001899999V0203601N00201030001CN0200001N9-00701-01201100371ADDAG11000AY121999GF108991021051008001071999MD1810051+9999MW1021
0064325960999991980022118004+51783+158033FM-12+001899999V0200501N00201030001CN0200001N9-00601-01001100291ADDAG11000AY121999GF106991021051008001071001MD1710081+9999MW1021
0126325960999991980022121004+51783+158033FM-12+001899999V0203601N00301004201CN0200001N9-00401-00901100301ADDAA199000091AG10000AY121999GF108991061051004501071999IA1319IA2999-01009KA1999N-00701MD1310021+9999MW1021REMSYN01170057 26097
0102325960999991980022200004+51783+158033FM-12+001899999V0203601N00101007501CN0200001N9-00201-00601100291ADDAA199000091AG10000AY121999GF108991081051008001999999KA1999N-00701MD1810011+9999MW1021REMSYN00570057
0064325960999991980022203004+51783+158033FM-12+001899999V0200501N00301007501CN0200001N9+00001-00501100241ADDAG11000AY121999GF108991081051008001999999MD1810051+9999MW1021
0064325960999991980022206004+51783+158033FM-12+001899999V0200501N00401007501CN0200001N9+00001-00601100221ADDAG11000AY121999GF108991081051008001999999MD1610021+9999MW1021
0102325960999991980022209004+51783+158033FM-12+001899999V0200501N00201007501CN0200001N9+00001-00601100301ADDAA199000091AG10000AY121999GF108991081051008001999999KA1999M+00001MD1310081+9999MW1021REMSYN00570000
0102325960999991980022212004+51783+158033FM-12+001899999V0200501N00201030001CN0200001N9-00201-00401100331ADDAA199000091AG10000AY121999GF108991041051008001011999KA1999M+00001MD1110031+9999MW1021REMSYN00570000
0064325960999991980022215004+51783+158033FM-12+001899999V0200501N00401007501CN0200001N9-00201-00501100291ADDAG12000AY121999GF108991051051008001011999MD1810041+9999MW1021
0064325960999991980022218004+51783+158033FM-12+001899999V0200501N00101007501CN0200001N9-00201-00401100281ADDAG12000AY121999GF108991081051008001999999MD1610011+9999MW1021
0149325960999991980022221004+51783+158033FM-12+001899999V0200501N01001004201CN0040001N9-00101-00201100331ADDAA199001091AG10001AY181999GF108991081091004501999999IA1209IA2999-00609KA1999N-00201MD1310031+9999MW1851OA199901401REMSYN02370152 25677 91114 92352
0125325960999991980022300004+51783+158033FM-12+001899999V0200501N01001004201CN0040001N9-00101-00201100341ADDAA199002091AG10001AY181999GF108991081091004501999999KA1999N-00201MD1110011+9999MW1851OA199901401REMSYN01770252 91114 92352
0095325960999991980022303004+51783+158033FM-12+001899999V0200501N01001004201CN0040001N9-00201-00201100281ADDAG12001AY181999GF108991081091004501999999MD1810061+9999MW1851OA199901401REMSYN01191114 92352
0095325960999991980022306004+51783+158033FM-12+001899999V0200501N01001004201CN0040001N9-00101-00301100201ADDAG12001AY181999GF108991081091004501999999MD1710081+9999MW1851OA199901401REMSYN01191114 92352
0119325960999991980022309004+51783+158033FM-12+001899999V0209991C00001007501CN0040001N9-00101-00201100221ADDAA199004091AG10001AY181999GF108991081091008001999999KA1999M-00101MD1310021+9999MW1851OA199901201REMSYN01170451 91112
0119325960999991980022312004+51783+158033FM-12+001899999V0200501N00201007501CN0040001N9-00201-00201100151ADDAA199004091AG10001AY181999GF108991081091008001999999KA1999M-00101MD1810071+9999MW1851OA199901201REMSYN01170451 91112
0064325960999991980022315004+51783+158033FM-12+001899999V0200501N00201007501CN0200001N9-00101-00201100101ADDAG12002AY181999GF108991081041008001999999MD1710051+9999MW1261
0064325960999991980022318004+51783+158033FM-12+001899999V0200501N00201007501CN0200001N9-00201-00401100041ADDAG12002AY181999GF108991081051008001999999MD1710061+9999MW1021
0126325960999991980022321004+51783+158033FM-12+001899999V0200501N00201007501CN0200001N9-00201-00401099901ADDAA199001091AG10000AY121999GF108991081051008001999999IA1209IA2999-00209KA1999N-00201MD1810141+9999MW1021REMSYN01170152 25277
0160325960999991980022400004+51783+158033FM-12+001899999V0200501N01201004201CN0040001N9+99999+99999999999ADDAA199001091AG10001AY181999GF108991081091004501999999KA1999N-00201MD1710141+9999MW1851OA199901401REMSYN01770152 91114 92352EQDQ01+025823ATOT  Q02+100703APOSLP
0089325960999991980022403004+51783+158033FM-12+001899999V0200501N01201004201CN0040001N9-00201-00401099591ADDAG12001AY181999GF108991081091004501999999MD1710171+9999MW1851OA199901401REMSYN00591114
0089325960999991980022406004+51783+158033FM-12+001899999V0200501N01201004201CN0040001N9-00201-00401099481ADDAG12001AY181999GF108991081091004501999999MD1710111+9999MW1851OA199901401REMSYN00591114
0119325960999991980022409004+51783+158033FM-12+001899999V0200501N01201004201CN0040001N9-00201-00501099411ADDAA199004091AG10001AY181999GF108991081091004501999999KA1999M-00201MD1710071+9999MW1851OA199901401REMSYN01170452 91114
0105325960999991980022412004+51783+158033FM-12+001899999V0200501N01201004201CN0040001N9-00201-00601099291ADDAA199004091AG10001AY181999GF108991081091004501999999KA1999M-00201MW1851OA199901401REMSYN01170452 91114
0089325960999991980022415004+51783+158033FM-12+001899999V0200501N01201007501CN0040001N9-00201-00601099271ADDAG12001AY181999GF108991081091008001999999MD1610041+9999MW1851OA199901601REMSYN00591116
0089325960999991980022418004+51783+158033FM-12+001899999V0200501N01201007501CN0040001N9-00201+99999099111ADDAG12001AY181999GF108991081091008001999999MD1810141+9999MW1851OA199901601REMSYN00591116
0143325960999991980022421004+51783+158033FM-12+001899999V0200501N01201007501CN0040001N9-00301-00701099131ADDAA199002091AG10001AY181999GF108991081091008001999999IA1209IA2999-00409KA1999N-00301MD1310021+9999MW1851OA199901401REMSYN01770253 25477 91114
0138325960999991980022500004+51783+158033FM-12+001899999V0200501N01201007501CN0040001N9-00401-00401099141ADDAA199002091AG10001AY181999GF108991081091008001999999KA1999N+99999MD1110011+9999MW1851OA199901401REMSYN01170253 91114EQDQ01 -00302ATMN  
0083325960999991980022503004+51783+158033FM-12+001899999V0200501N00201007501CN0040001N9-00301-00601999999ADDAG12001AY181999GF108991081091008001999999MD1810061+9999MW1851EQDQ01+098083APOSLP
0064325960999991980022506004+51783+158033FM-12+001899999V0200501N00201007501CN0200001N9-00401-00701099111ADDAG12002AY181999GF106991061041008001001001MD1310031+9999MW1261
0124325960999991980022512004+51783+158033FM-12+001899999V0203201N003019999999N0200001N9-00801-01501099051ADDAA199001091AG13000AY121999GF105991051051999999001001KA1999M-00301MD1810191+9999MW1021REMSYN00870153/..EQDQ01+000992SCOLCB
0064325960999991980022515004+51783+158033FM-12+001899999V0203601N00101220001CN0200001N9-01001-01801099151ADDAG11000AY111999GF103991031051008001001001MD1310091+9999MW1021
0064325960999991980022518004+51783+158033FM-12+001899999V0203601N00301220001CN0200001N9-01101-01801099061ADDAG11000AY111999GF103991031051008001001001MD1810091+9999MW1021
0102325960999991980022600004+51783+158033FM-12+001899999V0203201N00301220001CN0500001N9-00701-01901098921ADDAA199000091AG10000AY101999GF100991001001999999001001KA1999N-01101MD1810131+9999MW1021REMSYN00570061
0064325960999991980022603004+51783+158033FM-12+001899999V0203201N00401220001CN0500001N9-00701-01901098471ADDAG11000AY101999GF100991001001999999001001MD1710181+9999MW1021
0064325960999991980022606004+51783+158033FM-12+001899999V0203201N00201220001CN0500001N9-00701-01801098691ADDAG11000AY101999GF100991001001999999001001MD1610051+9999MW1021
0102325960999991980022609004+51783+158033FM-12+001899999V0203201N00201220001CN0200001N9-01001-02101098621ADDAA199000091AG14000AY101999GF100991001001999999001001KA1999M-00601MD1710071+9999MW1021REMSYN00570056
0119325960999991980022612004+51783+158033FM-12+001899999V0203201N01201220001CN0200001N9-01101-02201098581ADDAA199000091AG14000AY131999GF100991001001999999001001KA1999M-00601MD1710041+9999MW1361OA199901601REMSYN01170056 91116
0089325960999991980022615004+51783+158033FM-12+001899999V0203201N01201220001CN0200001N9-01101-02201098541ADDAG12000AY131999GF100991001001999999001001MD1710051+9999MW1361OA199901601REMSYN00591116
0089325960999991980022618004+51783+158033FM-12+001899999V0203201N01201220001CN0200001N9-01101-02101098521ADDAG12000AY131999GF100991001001999999001001MD1610021+9999MW1361OA199901601REMSYN00591116
0143325960999991980022621004+51783+158033FM-12+001899999V0203201N01801220001CN0200001N9-01201-02301098521ADDAA199000091AG14000AY131999GF100991001001999999001001IA1209IA2999-01509KA1999N-01201MD1410001+9999MW1361OA199902401REMSYN01770062 26577 91124
0119325960999991980022700004+51783+158033FM-12+001899999V0203201N01601220001CN0500001N9-00901-02001098641ADDAA199000091AG10000AY131999GF100991001001999999001001KA1999N-01201MD1310131+9999MW1361OA199902001REMSYN01170062 91120
0064325960999991980022706004+51783+158033FM-12+001899999V0202901N00301220001CN0500001N9-00701-01801098351ADDAG11000AY131999GF100991001001999999001001MD1810231+9999MW1021
0121325960999991980022709004+51783+158033FM-12+001899999V0203601N00101030001CN0200001N9-01001-02101098351ADDAA199000091AG14000AY111999GF108991081001999999071999KA1999M-00601MD1410001+9999MW1031REMSYN00570056EQDQ01+000062APCTEN
0102325960999991980022712004+51783+158033FM-12+001899999V0200501N00201030001CN0200001N9-00801-01201098191ADDAA199000091AG14000AY111999GF108991081001999999011999KA1999M-00601MD1810161+9999MW1021REMSYN00570056
0089325960999991980022715004+51783+158033FM-12+001899999V0200501N01201030001CN0200001N9-00401-00701098001ADDAG12000AY131999GF108991081001999999011999MD1710191+9999MW1361OA199901401REMSYN00591114
0089325960999991980022718004+51783+158033FM-12+001899999V0200501N01401030001CN0200001N9-00301-00601097821ADDAG12000AY131999GF108991081001999999011999MD1710181+9999MW1361OA199901601REMSYN00591116
0143325960999991980022721004+51783+158033FM-12+001899999V0200501N01401030001CN0200001N9-00301-00701097861ADDAA199000091AG14000AY131999GF108991081001999999071999IA1209IA2999-01509KA1999N-01001MD1310041+9999MW1361OA199901601REMSYN01770060 26577 91116
0119325960999991980022800004+51783+158033FM-12+001899999V0200501N01401030001CN0200001N9-00301-00801097901ADDAA199000091AG10000AY131999GF108991081001999999071999KA1999N-01001MD1210041+9999MW1361OA199901601REMSYN01170060 91116
0089325960999991980022803004+51783+158033FM-12+001899999V0200501N01401030001CN0200001N9-00201-00801097911ADDAG12000AY131999GF108991081001999999071999MD1110011+9999MW1361OA199901601REMSYN00591116
0089325960999991980022806004+51783+158033FM-12+001899999V0200501N01201007501CN0200001N9+00001-00601098021ADDAG12000AY131999GF108991081051008001999999MD1310121+9999MW1361OA199901601REMSYN00591116
0119325960999991980022809004+51783+158033FM-12+001899999V0200501N01001007501CN0200001N9-00201-00701098241ADDAA199000091AG14000AY131999GF108991081051008001999999KA1999M+00001MD1210211+9999MW1361OA199901201REMSYN01170050 91112
0154325960999991980022812004+51783+158033FM-12+001899999V0203601N00201007501CN0200001N9-00101-00801999999ADDAA199000091AG10000AY131999GF108991061051008001071999KA1999M+00001MD1410001+9999MW1021OA199999999REMSYN01170050 91172EQDQ01+100243APOSLPQ02  07203WGOSPD
0064325960999991980022815004+51783+158033FM-12+001899999V0203601N00201007501CN0200001N9-00201-00801098331ADDAG11000AY121999GF108991051051008001071999MD1310091+9999MW1021
0078325960999991980022818004+51783+158033FM-12+001899999V0203601N00301007501CN0200001N9-00201-00901097921ADDAG12000AY121999GF108991081051008001999999MD1810411+9999MW1021WG199010799999
0140325960999991980022821004+51783+158033FM-12+001899999V0203601N00401007501CN0200001N9-00301-00801097771ADDAA199000091AG14000AY121999GF108991081051008001999999IA1209IA2999-00509KA1999N-00301MD1610151+9999MW1021WG199990299999REMSYN01170053 25577
0135325960999991980022900004+51783+158033FM-12+001899999V0200501N00201007501CN0040001N9-00101-00501097991ADDAA199999999AG14001AY181999GF108991081091008001999999KA1999N-00301MD1310221+9999MW1851WG199030399999REMSYN00570053EQDQ01  00002PRCP99
0064325960999991980022903004+51783+158033FM-12+001899999V0209991C00001007501CN0040001N9-00201-00501097991ADDAG12001AY181999GF108991081091008001999999MD1410001+9999MW1851
0064325960999991980022906004+51783+158033FM-12+001899999V0209991C00001004201CN0005001N9-00201-00301097841ADDAG12003AY181999GF108991081091004501999999MD1810151+9999MW1861
0089325960999991980022915004+51783+158033FM-12+001899999V0200501N01201004201CN0040001N9+00001-00801098461ADDAG12001AY181999GF108991081091004501999999MD1210261+9999MW1851OA199901601REMSYN00591116
0089325960999991980022918004+51783+158033FM-12+001899999V0200501N01001004201CN0100001N9-00201-01001098681ADDAG12001AY181999GF108991081091004501999999MD1210211+9999MW1851OA199901601REMSYN00591116
0143325960999991980022921004+51783+158033FM-12+001899999V0203601N00201007501CN0200001N9-00201-00801098841ADDAA199004091AG10002AY181999GF108991081051008001999999IA1209IA2999-00409KA1999N-00201MD1210161+9999MW1021OA199901201REMSYN01770452 25477 91112
0119325960999991980030100004+51783+158033FM-12+001899999V0203601N00201007501CN0200001N9+00001-00901098921ADDAA199003091AG10002AY181999GF108991081051008001999999KA1999N-00201MD1110081+9999MW1021OA199901201REMSYN01170352 91112
0064325960999991980030103004+51783+158033FM-12+001899999V0203201N00201007501CN0200001N9+00001-00801098931ADDAG11000AY121999GF108991081051008001999999MD1110011+9999MW1021
0064325960999991980030106004+51783+158033FM-12+001899999V0203201N00101220001CN0500001N9-00101-00901099121ADDAG11000AY111999GF100991001001999999001001MD1310191+9999MW1031
0102325960999991980030109004+51783+158033FM-12+001899999V0209991C00001220001CN0200001N9-00401-01001099291ADDAA199000091AG10000AY101999GF100991001001999999001001KA1999M+00001MD1210171+9999MW1021REMSYN00570000
0116325960999991980030112004+51783+158033FM-12+001899999V0203201N00301220001CN0200001N9-00501-00901099471ADDAA199000091AG10000AY101999GF100991001001999999001001KA1999M+00001MD1210181+9999MW1021WG199990099999REMSYN00570000
0064325960999991980030115004+51783+158033FM-12+001899999V0203201N00201220001CN0500001N9-00501-01001099651ADDAG11000AY101999GF100991001001999999001001MD1210181+9999MW1021
0064325960999991980030118004+51783+158033FM-12+001899999V0203201N00201220001CN0200001N9-00801-01501099801ADDAG11000AY101999GF100991001001999999001001MD1210141+9999MW1021
0140325960999991980030121004+51783+158033FM-12+001899999V0203601N00101220001CN0500001N9-00901-01101099941ADDAA199000091AG10000AY101999GF100991001001999999001001IA1209IA2999-01509KA1999N-00901MD1210141+9999MW1021WG199990599999REMSYN01170059 26577
0121325960999991980030203004+51783+158033FM-12+001899999V0200501N00301220001CN0500001N9-00201-00601099901ADDAA199000091AG10000AY101999GF102991021051008001001001KA1999M+99999MD1810031+9999MW1021REMSYN00570059EQDQ01 -00902ATMX  
0095325960999991980030206004+51783+158033FM-12+001899999V0200501N01401007501CN0020001N9+00001-00101099371ADDAG11000AY131999GF108991081051008001999999MD1710261+9999MW1381OA199901801REMSYN01191118 92342
0125325960999991980030209004+51783+158033FM-12+001899999V0200501N01401007501CN0020001N9+00001-00201099131ADDAA199000091AG10000AY131999GF108991081051008001999999KA1999M+00001MD1710241+9999MW1381OA199901801REMSYN01770050 91118 92342
0139325960999991980030212004+51783+158033FM-12+001899999V0200501N01401007501CN0020001N9-00101-00201098851ADDAA199000091AG10000AY131999GF108991081051008001999999KA1999M+00001MD1710281+9999MW1381OA199901801WG199370999999REMSYN01770050 91118 92342
0090325960999991980030215004+51783+158033FM-12+001899999V02099999999999999999N0000501N9+99999+99999999999ADDAG12000GF108991081091999999999999MD1710221+9999MW1581WG199030299999REMSYN01191124 92356
0095325960999991980030218004+51783+158033FM-12+001899999V0200501N02401004201CN0010001N9-00201-00201098311ADDAG12001AY181999GF108991081091004501999999MD1710321+9999MW1851OA199902801REMSYN01191128 92373
0149325960999991980030221004+51783+158033FM-12+001899999V0200501N02801004201CN0005001N9-00201-00301098301ADDAA199003091AG10003AY181999GF108991081091004501999999IA1209IA2999-00409KA1999N-00201MD1610011+9999MW1861OA199903401REMSYN02370352 25477 91134 92373
0125325960999991980030300004+51783+158033FM-12+001899999V0200201N01801007501CN0020001N9+00001-00301098421ADDAA199005091AG10002AY181999GF108991081051008001999999KA1999N-00201MD1310131+9999MW1391OA199903401REMSYN01770552 91134 92362
0095325960999991980030303004+51783+158033FM-12+001899999V0200201N01801007501CN0200001N9+00101-00401098651ADDAG11000AY131999GF108991081051008001999999MD1210231+9999MW1371OA199902401REMSYN01191124 92360
0089325960999991980030306004+51783+158033FM-12+001899999V0203601N01401007501CN0200001N9+00001-00401098711ADDAG12000AY131999GF108991081051008001999999MD1110061+9999MW1361OA199902401REMSYN00591124
0119325960999991980030309004+51783+158033FM-12+001899999V0203601N00101007501CN0200001N9+00001-00401098921ADDAA199001091AG10000AY131999GF108991081051008001999999KA1999M+00101MD1310201+9999MW1021OA199901201REMSYN01170101 91112
0119325960999991980030312004+51783+158033FM-12+001899999V0209991C00001007501CN0200001N9-00201-00401099091ADDAA199000091AG14000AY131999GF108991081051008001999999KA1999M+00101MD1210171+9999MW1021OA199901201REMSYN01170001 91112
0064325960999991980030315004+51783+158033FM-12+001899999V0209991C00001007501CN0200001N9-00201-00601099101ADDAG12000AY121999GF108991081051008001999999MD1110011+9999MW1021
0064325960999991980030318004+51783+158033FM-12+001899999V0203601N00101007501CN0200001N9-00301-00901099121ADDAG12000AY121999GF108991081051008001999999MD1410001+9999MW1021
0102325960999991980030400004+51783+158033FM-12+001899999V0202701N00101030001CN0500001N9-00101-00701099021ADDAA199000091AG14000AY111999GF108991021051008001051999KA1999N-00401MD1810081+9999MW1031REMSYN00570054
0064325960999991980030403004+51783+158033FM-12+001899999V0202701N00101030001CN0500001N9-00101-00801098941ADDAG11000AY121999GF108991021051008001051999MD1710071+9999MW1021
0064325960999991980030406004+51783+158033FM-12+001899999V0203201N003019999999N0500001N9-00201-00801098881ADDAG11000AY121999GF108991021051008001999999MD1710061+9999MW1021
0102325960999991980030409004+51783+158033FM-12+001899999V0203201N00201030001CN0200001N9-00301-00701098931ADDAA199000091AG10000AY121999GF108991021051008001071999KA1999M-00101MD1310051+9999MW1021REMSYN00570051
0102325960999991980030412004+51783+158033FM-12+001899999V0209991C00001007501CN0200001N9-00501-00801098971ADDAA199000091AG14002AY181999GF108991081051008001999999KA1999M-00101MD1210041+9999MW1021REMSYN00570051
0064325960999991980030415004+51783+158033FM-12+001899999V0203201N00101030001CN0200001N9-00501-01001099011ADDAG11000AY121999GF108991021051008001071999MD1210041+9999MW1021
0078325960999991980030418004+51783+158033FM-12+001899999V0209991C00001030001CN0200001N9-00501-01001099041ADDAG11000AY121999GF108991081001999999071999MD1210031+9999MW1021WG199010899999
0126325960999991980030421004+51783+158033FM-12+001899999V0209991C00001030001CN0200001N9-00501-01001099031ADDAA199000091AG10000AY121999GF108991021051008001071999IA1209IA2999-00609KA1999N-00501MD1810011+9999MW1021REMSYN01170055 25677
0078325960999991980030503004+51783+158033FM-12+001899999V0209991C000019999999N0500001N9-00201-00801099081ADDAG11000AY101999GF108991081001999999999999MD1810011+9999MW1021WG199130999999
0143325960999991980030506004+51783+158033FM-12+001899999V0209991C00001220001CN0500001N9-00201-01801099111ADDAA199018091AG13000AY121999GF105991021001999999041011IA1159IA2999-00909MD1310031+9999MW1021REMSYN0419     25941 03602 99020 01461,0090/0718/7
0102325960999991980030509004+51783+158033FM-12+001899999V0209991C00001030001CN0200001N9-00501-01001099201ADDAA199000091AG10000AY121999GF106991051001999999041011KA1999M-00101MD1310091+9999MW1021REMSYN00570051
0102325960999991980030512004+51783+158033FM-12+001899999V0209991C00001220001CN0200001N9-00501-01001099221ADDAA199000091AG10000AY121999GF105991041001999999041011KA1999M-00101MD1110021+9999MW1021REMSYN00570051
0064325960999991980030515004+51783+158033FM-12+001899999V0209991C00001030001CN0200001N9-00501-00901099221ADDAG11000AY121999GF106991061001999999041001MD1410001+9999MW1021
0064325960999991980030518004+51783+158033FM-12+001899999V0209991C00001030001CN0200001N9-00501-00801099211ADDAG11000AY121999GF106991061001999999041001MD1810011+9999MW1021
0126325960999991980030521004+51783+158033FM-12+001899999V0209991C00001030001CN0500001N9-00501-00701099251ADDAA199000091AG14000AY121999GF108991081001999999071999IA1209IA2999-00909KA1999N-00501MD1310041+9999MW1031REMSYN01170055 25977
0102325960999991980030600004+51783+158033FM-12+001899999V0209991C00001030001CN0500001N9-00401-00801099261ADDAA199000091AG10000AY121999GF106991061001999999041001KA1999N-00501MD1110011+9999MW1021REMSYN00570055
0064325960999991980030603004+51783+158033FM-12+001899999V0209991C00001007501CN0500001N9-00201-00501099241ADDAG11000AY121999GF108991081051008001999999MD1810021+9999MW1021
0083325960999991980030606004+51783+158033FM-12+001899999V0200501N00101004201CN0040001N9-00401-00501099261ADDAG12000AY171999GF108991999071004501021999MD1310021+9999MW1701EQDQ01+000082SCOTLC
0121325960999991980030609004+51783+158033FM-12+001899999V0209991C00001004201CN0040001N9-00401-00501099391ADDAA199000391AG10000AY171999GF108991999071004501021999KA1999M-00201MD1310131+9999MW1701REMSYN00579352EQDQ01+000082SCOTLC
0102325960999991980030612004+51783+158033FM-12+001899999V0209991C00001220001CN0200001N9-00601-01001099461ADDAA199000391AG10001AY171999GF102991021051008001001001KA1999M-00201MD1310071+9999MW1011REMSYN00579352
0064325960999991980030615004+51783+158033FM-12+001899999V0203201N00201220001CN0200001N9-00701-01101099511ADDAG11000AY101999GF100991001001999999001001MD1210051+9999MW1021
0083325960999991980030618004+51783+158033FM-12+001899999V0209991C00001220001CN0200001N9+99999+99999099541ADDAG11000AY101999GF100991001001999999001001MD1210031+9999MW1021EQDQ01+025323ATOT  
0126325960999991980030621004+51783+158033FM-12+001899999V0203601N00101220001CN0500001N9-00801-01201099621ADDAA199999929AG13000AY101999GF100991001001999999001001IA1209IA2999-01309KA1999N-00801MD1310081+9999MW1021REMSYN01179758 26377
0102325960999991980030700004+51783+158033FM-12+001899999V0203601N00301220001CN0500001N9-00701-01401099711ADDAA199000091AG10000AY131999GF100991001001999999001001KA1999N-00801MD1210091+9999MW1361REMSYN00570058
0064325960999991980030703004+51783+158033FM-12+001899999V0203601N00201220001CN0500001N9-00501-01501099631ADDAG11000AY131999GF100991001001999999001001MD1810081+9999MW1021
0064325960999991980030706004+51783+158033FM-12+001899999V0202701N00101220001CN0500001N9-00601-01501099721ADDAG11000AY131999GF100991001001999999001001MD1310091+9999MW1021
0102325960999991980030709004+51783+158033FM-12+001899999V0209991C00001220001CN0200001N9-00801-01701099891ADDAA199000091AG10000AY101999GF100991001001999999001001KA1999M-00501MD1310161+9999MW1021REMSYN00570055
0102325960999991980030712004+51783+158033FM-12+001899999V0209991C00001220001CN0200001N9-01001-02001100081ADDAA199000091AG10000AY101999GF100991001001999999001001KA1999M-00501MD1210191+9999MW1021REMSYN00570055
